{
  "_format": "hh-sol-artifact-1",
  "contractName": "ForceSend",
  "sourceName": "contracts/V2/tests/ForceSend.sol",
  "abi": [
    {
      "inputs": [
        {
          "internalType": "address payable",
          "name": "victim",
          "type": "address"
        }
      ],
      "name": "go",
      "outputs": [],
      "stateMutability": "payable",
      "type": "function"
    }
  ],
  "bytecode": "0x6080604052348015600f57600080fd5b5060a08061001e6000396000f3fe608060405260043610601c5760003560e01c80633434e749146021575b600080fd5b6030602c366004603e565b6032565b005b806001600160a01b0316ff5b600060208284031215604e578081fd5b81356001600160a01b03811681146063578182fd5b939250505056fea26469706673582212205568ddafb798b740d6184874c57a7c7a01f02b52f3503dfad700a4ada31b8b6d64736f6c63430008040033",
  "linkReferences": {},
  "deployedLinkReferences": {}
}