{
  "contracts/V2/interfaces/IRibbonOptionsVault.sol": {
    "IRibbonOptionsVault": {
      "abi": [
        {
          "inputs": [],
          "name": "currentOption",
          "outputs": [
            {
              "internalType": "address",
              "name": "",
              "type": "address"
            }
          ],
          "stateMutability": "view",
          "type": "function"
        },
        {
          "inputs": [],
          "name": "nextOption",
          "outputs": [
            {
              "internalType": "address",
              "name": "",
              "type": "address"
            }
          ],
          "stateMutability": "view",
          "type": "function"
        },
        {
          "inputs": [],
          "name": "nextOptionReadyAt",
          "outputs": [
            {
              "internalType": "uint256",
              "name": "",
              "type": "uint256"
            }
          ],
          "stateMutability": "view",
          "type": "function"
        }
      ],
      "evm": {
        "bytecode": {
          "linkReferences": {},
          "object": "6080604052348015600f57600080fd5b5060998061001e6000396000f3fe6080604052348015600f57600080fd5b5060043610603c5760003560e01c80638b10cc7c146041578063a285c9e8146055578063a2db9d83146041575b600080fd5b604051600081526020015b60405180910390f35b60405160008152602001604c56fea2646970667358221220ce135c64dad55d7f2c84072df835e5f216ed4022cac329a7783ba4f13d72b07064736f6c63430008040033",
          "opcodes": "PUSH1 0x80 PUSH1 0x40 MSTORE CALLVALUE DUP1 ISZERO PUSH1 0xF JUMPI PUSH1 0x0 DUP1 REVERT JUMPDEST POP PUSH1 0x99 DUP1 PUSH2 0x1E PUSH1 0x0 CODECOPY PUSH1 0x0 RETURN INVALID PUSH1 0x80 PUSH1 0x40 MSTORE CALLVALUE DUP1 ISZERO PUSH1 0xF JUMPI PUSH1 0x0 DUP1 REVERT JUMPDEST POP PUSH1 0x4 CALLDATASIZE LT PUSH1 0x3C JUMPI PUSH1 0x0 CALLDATALOAD PUSH1 0xE0 SHR DUP1 PUSH4 0x8B10CC7C EQ PUSH1 0x41 JUMPI DUP1 PUSH4 0xA285C9E8 EQ PUSH1 0x55 JUMPI DUP1 PUSH4 0xA2DB9D83 EQ PUSH1 0x41 JUMPI JUMPDEST PUSH1 0x0 DUP1 REVERT JUMPDEST PUSH1 0x40 MLOAD PUSH1 0x0 DUP2 MSTORE PUSH1 0x20 ADD JUMPDEST PUSH1 0x40 MLOAD DUP1 SWAP2 SUB SWAP1 RETURN JUMPDEST PUSH1 0x40 MLOAD PUSH1 0x0 DUP2 MSTORE PUSH1 0x20 ADD PUSH1 0x4C JUMP INVALID LOG2 PUSH5 0x6970667358 0x22 SLT KECCAK256 0xCE SGT 0x5C PUSH5 0xDAD55D7F2C DUP5 SMOD 0x2D 0xF8 CALLDATALOAD 0xE5 CALLCODE AND 0xED BLOCKHASH 0x22 0xCA 0xC3 0x29 0xA7 PUSH25 0x3BA4F13D72B07064736F6C6343000804003300000000000000 "
        },
        "methodIdentifiers": {
          "currentOption()": "8b10cc7c",
          "nextOption()": "a2db9d83",
          "nextOptionReadyAt()": "a285c9e8"
        }
      }
    }
  }
}