{
  "contracts/V2/tests/ForceSend.sol": {
    "ForceSend": {
      "abi": [
        {
          "inputs": [
            {
              "internalType": "address payable",
              "name": "victim",
              "type": "address"
            }
          ],
          "name": "go",
          "outputs": [],
          "stateMutability": "payable",
          "type": "function"
        }
      ],
      "evm": {
        "bytecode": {
          "linkReferences": {},
          "object": "6080604052348015600f57600080fd5b5060a08061001e6000396000f3fe608060405260043610601c5760003560e01c80633434e749146021575b600080fd5b6030602c366004603e565b6032565b005b806001600160a01b0316ff5b600060208284031215604e578081fd5b81356001600160a01b03811681146063578182fd5b939250505056fea26469706673582212205568ddafb798b740d6184874c57a7c7a01f02b52f3503dfad700a4ada31b8b6d64736f6c63430008040033",
          "opcodes": "PUSH1 0x80 PUSH1 0x40 MSTORE CALLVALUE DUP1 ISZERO PUSH1 0xF JUMPI PUSH1 0x0 DUP1 REVERT JUMPDEST POP PUSH1 0xA0 DUP1 PUSH2 0x1E PUSH1 0x0 CODECOPY PUSH1 0x0 RETURN INVALID PUSH1 0x80 PUSH1 0x40 MSTORE PUSH1 0x4 CALLDATASIZE LT PUSH1 0x1C JUMPI PUSH1 0x0 CALLDATALOAD PUSH1 0xE0 SHR DUP1 PUSH4 0x3434E749 EQ PUSH1 0x21 JUMPI JUMPDEST PUSH1 0x0 DUP1 REVERT JUMPDEST PUSH1 0x30 PUSH1 0x2C CALLDATASIZE PUSH1 0x4 PUSH1 0x3E JUMP JUMPDEST PUSH1 0x32 JUMP JUMPDEST STOP JUMPDEST DUP1 PUSH1 0x1 PUSH1 0x1 PUSH1 0xA0 SHL SUB AND SELFDESTRUCT JUMPDEST PUSH1 0x0 PUSH1 0x20 DUP3 DUP5 SUB SLT ISZERO PUSH1 0x4E JUMPI DUP1 DUP2 REVERT JUMPDEST DUP2 CALLDATALOAD PUSH1 0x1 PUSH1 0x1 PUSH1 0xA0 SHL SUB DUP2 AND DUP2 EQ PUSH1 0x63 JUMPI DUP2 DUP3 REVERT JUMPDEST SWAP4 SWAP3 POP POP POP JUMP INVALID LOG2 PUSH5 0x6970667358 0x22 SLT KECCAK256 SSTORE PUSH9 0xDDAFB798B740D61848 PUSH21 0xC57A7C7A01F02B52F3503DFAD700A4ADA31B8B6D64 PUSH20 0x6F6C634300080400330000000000000000000000 "
        },
        "methodIdentifiers": {
          "go(address)": "3434e749"
        }
      }
    }
  }
}