{
  "_format": "hh-sol-artifact-1",
  "contractName": "RibbonLongStraddleVault",
  "sourceName": "contracts/long-straddle/RibbonLongStrangleVault.sol",
  "abi": [
    {
      "inputs": [
        {
          "internalType": "address",
          "name": "_weth",
          "type": "address"
        },
        {
          "internalType": "address",
          "name": "_usdc",
          "type": "address"
        },
        {
          "internalType": "address",
          "name": "_gammaController",
          "type": "address"
        },
        {
          "internalType": "address",
          "name": "_marginPool",
          "type": "address"
        },
        {
          "internalType": "address",
          "name": "_gnosisEasyAuction",
          "type": "address"
        }
      ],
      "stateMutability": "nonpayable",
      "type": "constructor"
    },
    {
      "anonymous": false,
      "inputs": [
        {
          "indexed": true,
          "internalType": "address",
          "name": "owner",
          "type": "address"
        },
        {
          "indexed": true,
          "internalType": "address",
          "name": "spender",
          "type": "address"
        },
        {
          "indexed": false,
          "internalType": "uint256",
          "name": "value",
          "type": "uint256"
        }
      ],
      "name": "Approval",
      "type": "event"
    },
    {
      "anonymous": false,
      "inputs": [
        {
          "indexed": false,
          "internalType": "uint256",
          "name": "oldCap",
          "type": "uint256"
        },
        {
          "indexed": false,
          "internalType": "uint256",
          "name": "newCap",
          "type": "uint256"
        },
        {
          "indexed": false,
          "internalType": "address",
          "name": "manager",
          "type": "address"
        }
      ],
      "name": "CapSet",
      "type": "event"
    },
    {
      "anonymous": false,
      "inputs": [
        {
          "indexed": false,
          "internalType": "uint256",
          "name": "performanceFee",
          "type": "uint256"
        },
        {
          "indexed": false,
          "internalType": "uint256",
          "name": "vaultFee",
          "type": "uint256"
        },
        {
          "indexed": false,
          "internalType": "uint256",
          "name": "round",
          "type": "uint256"
        },
        {
          "indexed": true,
          "internalType": "address",
          "name": "feeRecipient",
          "type": "address"
        }
      ],
      "name": "CollectVaultFees",
      "type": "event"
    },
    {
      "anonymous": false,
      "inputs": [
        {
          "indexed": true,
          "internalType": "address",
          "name": "account",
          "type": "address"
        },
        {
          "indexed": false,
          "internalType": "uint256",
          "name": "amount",
          "type": "uint256"
        },
        {
          "indexed": false,
          "internalType": "uint256",
          "name": "round",
          "type": "uint256"
        }
      ],
      "name": "Deposit",
      "type": "event"
    },
    {
      "anonymous": false,
      "inputs": [
        {
          "indexed": true,
          "internalType": "address",
          "name": "account",
          "type": "address"
        },
        {
          "indexed": false,
          "internalType": "uint256",
          "name": "shares",
          "type": "uint256"
        },
        {
          "indexed": false,
          "internalType": "uint256",
          "name": "round",
          "type": "uint256"
        }
      ],
      "name": "InitiateWithdraw",
      "type": "event"
    },
    {
      "anonymous": false,
      "inputs": [
        {
          "indexed": false,
          "internalType": "uint256",
          "name": "managementFee",
          "type": "uint256"
        },
        {
          "indexed": false,
          "internalType": "uint256",
          "name": "newManagementFee",
          "type": "uint256"
        }
      ],
      "name": "ManagementFeeSet",
      "type": "event"
    },
    {
      "anonymous": false,
      "inputs": [
        {
          "indexed": true,
          "internalType": "address",
          "name": "previousOwner",
          "type": "address"
        },
        {
          "indexed": true,
          "internalType": "address",
          "name": "newOwner",
          "type": "address"
        }
      ],
      "name": "OwnershipTransferred",
      "type": "event"
    },
    {
      "anonymous": false,
      "inputs": [
        {
          "indexed": false,
          "internalType": "uint256",
          "name": "performanceFee",
          "type": "uint256"
        },
        {
          "indexed": false,
          "internalType": "uint256",
          "name": "newPerformanceFee",
          "type": "uint256"
        }
      ],
      "name": "PerformanceFeeSet",
      "type": "event"
    },
    {
      "anonymous": false,
      "inputs": [
        {
          "indexed": true,
          "internalType": "address",
          "name": "account",
          "type": "address"
        },
        {
          "indexed": false,
          "internalType": "uint256",
          "name": "share",
          "type": "uint256"
        },
        {
          "indexed": false,
          "internalType": "uint256",
          "name": "round",
          "type": "uint256"
        }
      ],
      "name": "Redeem",
      "type": "event"
    },
    {
      "anonymous": false,
      "inputs": [
        {
          "indexed": true,
          "internalType": "address",
          "name": "from",
          "type": "address"
        },
        {
          "indexed": true,
          "internalType": "address",
          "name": "to",
          "type": "address"
        },
        {
          "indexed": false,
          "internalType": "uint256",
          "name": "value",
          "type": "uint256"
        }
      ],
      "name": "Transfer",
      "type": "event"
    },
    {
      "anonymous": false,
      "inputs": [
        {
          "indexed": true,
          "internalType": "address",
          "name": "account",
          "type": "address"
        },
        {
          "indexed": false,
          "internalType": "uint256",
          "name": "amount",
          "type": "uint256"
        },
        {
          "indexed": false,
          "internalType": "uint256",
          "name": "shares",
          "type": "uint256"
        }
      ],
      "name": "Withdraw",
      "type": "event"
    },
    {
      "inputs": [],
      "name": "DELAY",
      "outputs": [
        {
          "internalType": "uint256",
          "name": "",
          "type": "uint256"
        }
      ],
      "stateMutability": "view",
      "type": "function"
    },
    {
      "inputs": [],
      "name": "GAMMA_CONTROLLER",
      "outputs": [
        {
          "internalType": "address",
          "name": "",
          "type": "address"
        }
      ],
      "stateMutability": "view",
      "type": "function"
    },
    {
      "inputs": [],
      "name": "GNOSIS_EASY_AUCTION",
      "outputs": [
        {
          "internalType": "address",
          "name": "",
          "type": "address"
        }
      ],
      "stateMutability": "view",
      "type": "function"
    },
    {
      "inputs": [],
      "name": "MARGIN_POOL",
      "outputs": [
        {
          "internalType": "address",
          "name": "",
          "type": "address"
        }
      ],
      "stateMutability": "view",
      "type": "function"
    },
    {
      "inputs": [],
      "name": "PERIOD",
      "outputs": [
        {
          "internalType": "uint256",
          "name": "",
          "type": "uint256"
        }
      ],
      "stateMutability": "view",
      "type": "function"
    },
    {
      "inputs": [],
      "name": "USDC",
      "outputs": [
        {
          "internalType": "address",
          "name": "",
          "type": "address"
        }
      ],
      "stateMutability": "view",
      "type": "function"
    },
    {
      "inputs": [],
      "name": "WETH",
      "outputs": [
        {
          "internalType": "address",
          "name": "",
          "type": "address"
        }
      ],
      "stateMutability": "view",
      "type": "function"
    },
    {
      "inputs": [
        {
          "internalType": "address",
          "name": "account",
          "type": "address"
        }
      ],
      "name": "accountVaultBalance",
      "outputs": [
        {
          "internalType": "uint256",
          "name": "",
          "type": "uint256"
        }
      ],
      "stateMutability": "view",
      "type": "function"
    },
    {
      "inputs": [
        {
          "internalType": "address",
          "name": "owner",
          "type": "address"
        },
        {
          "internalType": "address",
          "name": "spender",
          "type": "address"
        }
      ],
      "name": "allowance",
      "outputs": [
        {
          "internalType": "uint256",
          "name": "",
          "type": "uint256"
        }
      ],
      "stateMutability": "view",
      "type": "function"
    },
    {
      "inputs": [
        {
          "internalType": "address",
          "name": "spender",
          "type": "address"
        },
        {
          "internalType": "uint256",
          "name": "amount",
          "type": "uint256"
        }
      ],
      "name": "approve",
      "outputs": [
        {
          "internalType": "bool",
          "name": "",
          "type": "bool"
        }
      ],
      "stateMutability": "nonpayable",
      "type": "function"
    },
    {
      "inputs": [],
      "name": "auctionCallSellOrder",
      "outputs": [
        {
          "internalType": "uint96",
          "name": "sellAmount",
          "type": "uint96"
        },
        {
          "internalType": "uint96",
          "name": "buyAmount",
          "type": "uint96"
        },
        {
          "internalType": "uint64",
          "name": "userId",
          "type": "uint64"
        }
      ],
      "stateMutability": "view",
      "type": "function"
    },
    {
      "inputs": [],
      "name": "auctionPutSellOrder",
      "outputs": [
        {
          "internalType": "uint96",
          "name": "sellAmount",
          "type": "uint96"
        },
        {
          "internalType": "uint96",
          "name": "buyAmount",
          "type": "uint96"
        },
        {
          "internalType": "uint64",
          "name": "userId",
          "type": "uint64"
        }
      ],
      "stateMutability": "view",
      "type": "function"
    },
    {
      "inputs": [],
      "name": "balanceBeforePremium",
      "outputs": [
        {
          "internalType": "uint256",
          "name": "",
          "type": "uint256"
        }
      ],
      "stateMutability": "view",
      "type": "function"
    },
    {
      "inputs": [
        {
          "internalType": "address",
          "name": "account",
          "type": "address"
        }
      ],
      "name": "balanceOf",
      "outputs": [
        {
          "internalType": "uint256",
          "name": "",
          "type": "uint256"
        }
      ],
      "stateMutability": "view",
      "type": "function"
    },
    {
      "inputs": [],
      "name": "cap",
      "outputs": [
        {
          "internalType": "uint256",
          "name": "",
          "type": "uint256"
        }
      ],
      "stateMutability": "view",
      "type": "function"
    },
    {
      "inputs": [],
      "name": "claimAuctionOtokens",
      "outputs": [],
      "stateMutability": "nonpayable",
      "type": "function"
    },
    {
      "inputs": [],
      "name": "completeWithdraw",
      "outputs": [],
      "stateMutability": "nonpayable",
      "type": "function"
    },
    {
      "inputs": [],
      "name": "counterpartyCallThetaVault",
      "outputs": [
        {
          "internalType": "contract IRibbonThetaVault",
          "name": "",
          "type": "address"
        }
      ],
      "stateMutability": "view",
      "type": "function"
    },
    {
      "inputs": [],
      "name": "counterpartyPutThetaVault",
      "outputs": [
        {
          "internalType": "contract IRibbonThetaVault",
          "name": "",
          "type": "address"
        }
      ],
      "stateMutability": "view",
      "type": "function"
    },
    {
      "inputs": [],
      "name": "counterpartyThetaVault",
      "outputs": [
        {
          "internalType": "contract IRibbonThetaVault",
          "name": "",
          "type": "address"
        }
      ],
      "stateMutability": "view",
      "type": "function"
    },
    {
      "inputs": [],
      "name": "currentOption",
      "outputs": [
        {
          "internalType": "address",
          "name": "",
          "type": "address"
        }
      ],
      "stateMutability": "view",
      "type": "function"
    },
    {
      "inputs": [],
      "name": "decimals",
      "outputs": [
        {
          "internalType": "uint8",
          "name": "",
          "type": "uint8"
        }
      ],
      "stateMutability": "view",
      "type": "function"
    },
    {
      "inputs": [
        {
          "internalType": "address",
          "name": "spender",
          "type": "address"
        },
        {
          "internalType": "uint256",
          "name": "subtractedValue",
          "type": "uint256"
        }
      ],
      "name": "decreaseAllowance",
      "outputs": [
        {
          "internalType": "bool",
          "name": "",
          "type": "bool"
        }
      ],
      "stateMutability": "nonpayable",
      "type": "function"
    },
    {
      "inputs": [
        {
          "internalType": "uint256",
          "name": "amount",
          "type": "uint256"
        }
      ],
      "name": "deposit",
      "outputs": [],
      "stateMutability": "nonpayable",
      "type": "function"
    },
    {
      "inputs": [],
      "name": "depositETH",
      "outputs": [],
      "stateMutability": "payable",
      "type": "function"
    },
    {
      "inputs": [
        {
          "internalType": "uint256",
          "name": "amount",
          "type": "uint256"
        },
        {
          "internalType": "address",
          "name": "creditor",
          "type": "address"
        }
      ],
      "name": "depositFor",
      "outputs": [],
      "stateMutability": "nonpayable",
      "type": "function"
    },
    {
      "inputs": [
        {
          "internalType": "address",
          "name": "",
          "type": "address"
        }
      ],
      "name": "depositReceipts",
      "outputs": [
        {
          "internalType": "uint16",
          "name": "round",
          "type": "uint16"
        },
        {
          "internalType": "uint104",
          "name": "amount",
          "type": "uint104"
        },
        {
          "internalType": "uint128",
          "name": "unredeemedShares",
          "type": "uint128"
        }
      ],
      "stateMutability": "view",
      "type": "function"
    },
    {
      "inputs": [],
      "name": "feeRecipient",
      "outputs": [
        {
          "internalType": "address",
          "name": "",
          "type": "address"
        }
      ],
      "stateMutability": "view",
      "type": "function"
    },
    {
      "inputs": [
        {
          "internalType": "address",
          "name": "spender",
          "type": "address"
        },
        {
          "internalType": "uint256",
          "name": "addedValue",
          "type": "uint256"
        }
      ],
      "name": "increaseAllowance",
      "outputs": [
        {
          "internalType": "bool",
          "name": "",
          "type": "bool"
        }
      ],
      "stateMutability": "nonpayable",
      "type": "function"
    },
    {
      "inputs": [
        {
          "internalType": "uint256",
          "name": "numRounds",
          "type": "uint256"
        }
      ],
      "name": "initRounds",
      "outputs": [],
      "stateMutability": "nonpayable",
      "type": "function"
    },
    {
      "inputs": [
        {
          "internalType": "address",
          "name": "_owner",
          "type": "address"
        },
        {
          "internalType": "address",
          "name": "_keeper",
          "type": "address"
        },
        {
          "internalType": "address",
          "name": "_feeRecipient",
          "type": "address"
        },
        {
          "internalType": "uint256",
          "name": "_managementFee",
          "type": "uint256"
        },
        {
          "internalType": "uint256",
          "name": "_performanceFee",
          "type": "uint256"
        },
        {
          "internalType": "string",
          "name": "_tokenName",
          "type": "string"
        },
        {
          "internalType": "string",
          "name": "_tokenSymbol",
          "type": "string"
        },
        {
          "internalType": "address",
          "name": "_counterpartyPutThetaVault",
          "type": "address"
        },
        {
          "internalType": "address",
          "name": "_counterpartyCallThetaVault",
          "type": "address"
        },
        {
          "internalType": "uint256",
          "name": "_optionAllocation",
          "type": "uint256"
        },
        {
          "components": [
            {
              "internalType": "bool",
              "name": "isPut",
              "type": "bool"
            },
            {
              "internalType": "uint8",
              "name": "decimals",
              "type": "uint8"
            },
            {
              "internalType": "address",
              "name": "asset",
              "type": "address"
            },
            {
              "internalType": "address",
              "name": "underlying",
              "type": "address"
            },
            {
              "internalType": "uint56",
              "name": "minimumSupply",
              "type": "uint56"
            },
            {
              "internalType": "uint104",
              "name": "cap",
              "type": "uint104"
            }
          ],
          "internalType": "struct Vault.VaultParams",
          "name": "_vaultParams",
          "type": "tuple"
        }
      ],
      "name": "initialize",
      "outputs": [],
      "stateMutability": "nonpayable",
      "type": "function"
    },
    {
      "inputs": [
        {
          "internalType": "uint256",
          "name": "numShares",
          "type": "uint256"
        }
      ],
      "name": "initiateWithdraw",
      "outputs": [],
      "stateMutability": "nonpayable",
      "type": "function"
    },
    {
      "inputs": [],
      "name": "keeper",
      "outputs": [
        {
          "internalType": "address",
          "name": "",
          "type": "address"
        }
      ],
      "stateMutability": "view",
      "type": "function"
    },
    {
      "inputs": [],
      "name": "managementFee",
      "outputs": [
        {
          "internalType": "uint256",
          "name": "",
          "type": "uint256"
        }
      ],
      "stateMutability": "view",
      "type": "function"
    },
    {
      "inputs": [],
      "name": "maxRedeem",
      "outputs": [],
      "stateMutability": "nonpayable",
      "type": "function"
    },
    {
      "inputs": [],
      "name": "name",
      "outputs": [
        {
          "internalType": "string",
          "name": "",
          "type": "string"
        }
      ],
      "stateMutability": "view",
      "type": "function"
    },
    {
      "inputs": [],
      "name": "nextOption",
      "outputs": [
        {
          "internalType": "address",
          "name": "",
          "type": "address"
        }
      ],
      "stateMutability": "view",
      "type": "function"
    },
    {
      "inputs": [],
      "name": "nextOptionReadyAt",
      "outputs": [
        {
          "internalType": "uint256",
          "name": "",
          "type": "uint256"
        }
      ],
      "stateMutability": "view",
      "type": "function"
    },
    {
      "inputs": [],
      "name": "optionAllocation",
      "outputs": [
        {
          "internalType": "uint256",
          "name": "",
          "type": "uint256"
        }
      ],
      "stateMutability": "view",
      "type": "function"
    },
    {
      "inputs": [],
      "name": "optionState",
      "outputs": [
        {
          "internalType": "address",
          "name": "nextOption",
          "type": "address"
        },
        {
          "internalType": "address",
          "name": "currentOption",
          "type": "address"
        },
        {
          "internalType": "uint32",
          "name": "nextOptionReadyAt",
          "type": "uint32"
        }
      ],
      "stateMutability": "view",
      "type": "function"
    },
    {
      "inputs": [],
      "name": "owner",
      "outputs": [
        {
          "internalType": "address",
          "name": "",
          "type": "address"
        }
      ],
      "stateMutability": "view",
      "type": "function"
    },
    {
      "inputs": [],
      "name": "performanceFee",
      "outputs": [
        {
          "internalType": "uint256",
          "name": "",
          "type": "uint256"
        }
      ],
      "stateMutability": "view",
      "type": "function"
    },
    {
      "inputs": [],
      "name": "pricePerShare",
      "outputs": [
        {
          "internalType": "uint256",
          "name": "",
          "type": "uint256"
        }
      ],
      "stateMutability": "view",
      "type": "function"
    },
    {
      "inputs": [
        {
          "internalType": "uint256",
          "name": "numShares",
          "type": "uint256"
        }
      ],
      "name": "redeem",
      "outputs": [],
      "stateMutability": "nonpayable",
      "type": "function"
    },
    {
      "inputs": [],
      "name": "renounceOwnership",
      "outputs": [],
      "stateMutability": "nonpayable",
      "type": "function"
    },
    {
      "inputs": [
        {
          "internalType": "uint256",
          "name": "putOptionPremium",
          "type": "uint256"
        },
        {
          "internalType": "uint256",
          "name": "callOptionPremium",
          "type": "uint256"
        }
      ],
      "name": "rollToNextOption",
      "outputs": [],
      "stateMutability": "nonpayable",
      "type": "function"
    },
    {
      "inputs": [
        {
          "internalType": "uint256",
          "name": "",
          "type": "uint256"
        }
      ],
      "name": "roundPricePerShare",
      "outputs": [
        {
          "internalType": "uint256",
          "name": "",
          "type": "uint256"
        }
      ],
      "stateMutability": "view",
      "type": "function"
    },
    {
      "inputs": [
        {
          "internalType": "uint256",
          "name": "newCap",
          "type": "uint256"
        }
      ],
      "name": "setCap",
      "outputs": [],
      "stateMutability": "nonpayable",
      "type": "function"
    },
    {
      "inputs": [
        {
          "internalType": "address",
          "name": "newFeeRecipient",
          "type": "address"
        }
      ],
      "name": "setFeeRecipient",
      "outputs": [],
      "stateMutability": "nonpayable",
      "type": "function"
    },
    {
      "inputs": [
        {
          "internalType": "uint256",
          "name": "newManagementFee",
          "type": "uint256"
        }
      ],
      "name": "setManagementFee",
      "outputs": [],
      "stateMutability": "nonpayable",
      "type": "function"
    },
    {
      "inputs": [
        {
          "internalType": "address",
          "name": "newKeeper",
          "type": "address"
        }
      ],
      "name": "setNewKeeper",
      "outputs": [],
      "stateMutability": "nonpayable",
      "type": "function"
    },
    {
      "inputs": [
        {
          "internalType": "uint16",
          "name": "newOptionAllocation",
          "type": "uint16"
        }
      ],
      "name": "setOptionAllocation",
      "outputs": [],
      "stateMutability": "nonpayable",
      "type": "function"
    },
    {
      "inputs": [
        {
          "internalType": "uint256",
          "name": "newPerformanceFee",
          "type": "uint256"
        }
      ],
      "name": "setPerformanceFee",
      "outputs": [],
      "stateMutability": "nonpayable",
      "type": "function"
    },
    {
      "inputs": [
        {
          "internalType": "address",
          "name": "account",
          "type": "address"
        }
      ],
      "name": "shareBalances",
      "outputs": [
        {
          "internalType": "uint256",
          "name": "heldByAccount",
          "type": "uint256"
        },
        {
          "internalType": "uint256",
          "name": "heldByVault",
          "type": "uint256"
        }
      ],
      "stateMutability": "view",
      "type": "function"
    },
    {
      "inputs": [
        {
          "internalType": "address",
          "name": "account",
          "type": "address"
        }
      ],
      "name": "shares",
      "outputs": [
        {
          "internalType": "uint256",
          "name": "",
          "type": "uint256"
        }
      ],
      "stateMutability": "view",
      "type": "function"
    },
    {
      "inputs": [],
      "name": "symbol",
      "outputs": [
        {
          "internalType": "string",
          "name": "",
          "type": "string"
        }
      ],
      "stateMutability": "view",
      "type": "function"
    },
    {
      "inputs": [],
      "name": "totalBalance",
      "outputs": [
        {
          "internalType": "uint256",
          "name": "",
          "type": "uint256"
        }
      ],
      "stateMutability": "view",
      "type": "function"
    },
    {
      "inputs": [],
      "name": "totalPending",
      "outputs": [
        {
          "internalType": "uint256",
          "name": "",
          "type": "uint256"
        }
      ],
      "stateMutability": "view",
      "type": "function"
    },
    {
      "inputs": [],
      "name": "totalSupply",
      "outputs": [
        {
          "internalType": "uint256",
          "name": "",
          "type": "uint256"
        }
      ],
      "stateMutability": "view",
      "type": "function"
    },
    {
      "inputs": [
        {
          "internalType": "address",
          "name": "recipient",
          "type": "address"
        },
        {
          "internalType": "uint256",
          "name": "amount",
          "type": "uint256"
        }
      ],
      "name": "transfer",
      "outputs": [
        {
          "internalType": "bool",
          "name": "",
          "type": "bool"
        }
      ],
      "stateMutability": "nonpayable",
      "type": "function"
    },
    {
      "inputs": [
        {
          "internalType": "address",
          "name": "sender",
          "type": "address"
        },
        {
          "internalType": "address",
          "name": "recipient",
          "type": "address"
        },
        {
          "internalType": "uint256",
          "name": "amount",
          "type": "uint256"
        }
      ],
      "name": "transferFrom",
      "outputs": [
        {
          "internalType": "bool",
          "name": "",
          "type": "bool"
        }
      ],
      "stateMutability": "nonpayable",
      "type": "function"
    },
    {
      "inputs": [
        {
          "internalType": "address",
          "name": "newOwner",
          "type": "address"
        }
      ],
      "name": "transferOwnership",
      "outputs": [],
      "stateMutability": "nonpayable",
      "type": "function"
    },
    {
      "inputs": [],
      "name": "vaultParams",
      "outputs": [
        {
          "internalType": "bool",
          "name": "isPut",
          "type": "bool"
        },
        {
          "internalType": "uint8",
          "name": "decimals",
          "type": "uint8"
        },
        {
          "internalType": "address",
          "name": "asset",
          "type": "address"
        },
        {
          "internalType": "address",
          "name": "underlying",
          "type": "address"
        },
        {
          "internalType": "uint56",
          "name": "minimumSupply",
          "type": "uint56"
        },
        {
          "internalType": "uint104",
          "name": "cap",
          "type": "uint104"
        }
      ],
      "stateMutability": "view",
      "type": "function"
    },
    {
      "inputs": [],
      "name": "vaultState",
      "outputs": [
        {
          "internalType": "uint16",
          "name": "round",
          "type": "uint16"
        },
        {
          "internalType": "uint104",
          "name": "lockedAmount",
          "type": "uint104"
        },
        {
          "internalType": "uint104",
          "name": "lastLockedAmount",
          "type": "uint104"
        },
        {
          "internalType": "uint128",
          "name": "totalPending",
          "type": "uint128"
        },
        {
          "internalType": "uint128",
          "name": "queuedWithdrawShares",
          "type": "uint128"
        }
      ],
      "stateMutability": "view",
      "type": "function"
    },
    {
      "inputs": [
        {
          "internalType": "uint256",
          "name": "share",
          "type": "uint256"
        }
      ],
      "name": "withdrawInstantly",
      "outputs": [],
      "stateMutability": "nonpayable",
      "type": "function"
    },
    {
      "inputs": [
        {
          "internalType": "address",
          "name": "",
          "type": "address"
        }
      ],
      "name": "withdrawals",
      "outputs": [
        {
          "internalType": "uint16",
          "name": "round",
          "type": "uint16"
        },
        {
          "internalType": "uint128",
          "name": "shares",
          "type": "uint128"
        }
      ],
      "stateMutability": "view",
      "type": "function"
    }
  ],
  "bytecode": "0x6101206040523480156200001257600080fd5b506040516200557938038062005579833981016040819052620000359162000246565b84848484846001600160a01b0385166200007f5760405162461bcd60e51b8152602060048201526006602482015265042beeecae8d60d31b60448201526064015b60405180910390fd5b6001600160a01b038416620000c05760405162461bcd60e51b8152602060048201526006602482015265215f7573646360d01b604482015260640162000076565b6001600160a01b038116620001185760405162461bcd60e51b815260206004820152601360248201527f215f676e6f7369734561737941756374696f6e00000000000000000000000000604482015260640162000076565b6001600160a01b038316620001645760405162461bcd60e51b815260206004820152601160248201527010afb3b0b6b6b0a1b7b73a3937b63632b960791b604482015260640162000076565b6001600160a01b038216620001ab5760405162461bcd60e51b815260206004820152600c60248201526b0857db585c99da5b941bdbdb60a21b604482015260640162000076565b6001600160601b0319606095861b811660805293851b841660a05291841b831660c052831b821660e05290911b16610100526001600160a01b0384166200021e5760405162461bcd60e51b8152602060048201526006602482015265215f7573646360d01b604482015260640162000076565b5050505050620002b5565b80516001600160a01b03811681146200024157600080fd5b919050565b600080600080600060a086880312156200025e578081fd5b620002698662000229565b9450620002796020870162000229565b9350620002896040870162000229565b9250620002996060870162000229565b9150620002a96080870162000229565b90509295509295909350565b60805160601c60a05160601c60c05160601c60e05160601c6101005160601c615238620003416000396000818161088701528181612710015281816128e501528181613acc0152613b95015260006107b90152600061048401526000610a02015260008181610c8101528181612126015281816121d2015281816132c3015261330001526152386000f3fe6080604052600436106103d95760003560e01c806389a30271116101fd578063b4d1d79511610118578063e6113454116100ab578063f6326fb31161007a578063f6326fb314610e40578063f656ba5114610e48578063f756fa2114610e7d578063fe56e23214610e92578063ff02026014610eb257600080fd5b8063e611345414610dcb578063e74b981b14610deb578063e7b6951014610e0b578063f2fde38b14610e2057600080fd5b8063ce7c2ac2116100e7578063ce7c2ac214610d25578063d164cc1514610d45578063db006a7514610d65578063dd62ed3e14610d8557600080fd5b8063b4d1d79514610cb8578063b6b55f2514610ccf578063b70a293914610cef578063c9f369c214610d0f57600080fd5b8063a285c9e811610190578063a9059cbb1161015f578063a9059cbb14610c2f578063aced166114610c4f578063ad5c464814610c6f578063ad7a672f14610ca357600080fd5b8063a285c9e814610bb9578063a2db9d8314610bdb578063a457c2d714610bf9578063a6f7f5d614610c1957600080fd5b806399530b06116101cc57806399530b0614610a755780639be43daa14610a8a5780639fcc2d7514610aaa578063a083ff1714610b5657600080fd5b806389a30271146109f05780638b10cc7c14610a245780638da5cb5b14610a4257806395d89b4114610a6057600080fd5b80633f90916a116102f85780636c10f66c1161028b578063715018a61161025a578063715018a6146109145780637a9262a2146109295780637e108d521461098d57806387153eb1146109ad57806387788782146109da57600080fd5b80636c10f66c146108755780636f31ab34146108a957806370897b23146108be57806370a08231146108de57600080fd5b806350d30010116102c757806350d3001014610787578063650cce8a146107a75780636719b2ee146107db57806369b411701461085f57600080fd5b80633f90916a14610709578063469048401461072757806347786d371461074757806347cb27ad1461076757600080fd5b80632800483711610370578063355274ea1161033f578063355274ea1461068b57806336efd16f146106a957806339509351146106c95780633f23bb73146106e957600080fd5b806328004837146105935780632aa3ea4e146105b35780632fea505214610622578063313ce5671461066157600080fd5b80631a92f6c2116103ac5780631a92f6c21461047257806323b872dd146104be5780632728f333146104de5780632775d01c1461057157600080fd5b806306fdde03146103de578063095ea7b314610409578063150d3ec21461043957806318160ddd1461045d575b600080fd5b3480156103ea57600080fd5b506103f3610ed2565b6040516104009190614c9c565b60405180910390f35b34801561041557600080fd5b50610429610424366004614961565b610f64565b6040519015158152602001610400565b34801561044557600080fd5b5061044f60f75481565b604051908152602001610400565b34801561046957600080fd5b5060995461044f565b34801561047e57600080fd5b506104a67f000000000000000000000000000000000000000000000000000000000000000081565b6040516001600160a01b039091168152602001610400565b3480156104ca57600080fd5b506104296104d9366004614921565b610f7b565b3480156104ea57600080fd5b5060cf5460d05461052c9161ffff8116916001600160681b03620100008304811692600160781b900416906001600160801b0380821691600160801b90041685565b6040805161ffff90961686526001600160681b03948516602087015293909216928401929092526001600160801b03918216606084015216608082015260a001610400565b34801561057d57600080fd5b5061059161058c366004614a74565b61102c565b005b34801561059f57600080fd5b5060f5546104a6906001600160a01b031681565b3480156105bf57600080fd5b5060f9546105f2906001600160601b0380821691600160601b810490911690600160c01b900467ffffffffffffffff1683565b604080516001600160601b03948516815293909216602084015267ffffffffffffffff1690820152606001610400565b34801561062e57600080fd5b5060f8546105f2906001600160601b0380821691600160601b810490911690600160c01b900467ffffffffffffffff1683565b34801561066d57600080fd5b5060cc54610100900460ff1660405160ff9091168152602001610400565b34801561069757600080fd5b5060ce546001600160681b031661044f565b3480156106b557600080fd5b506105916106c4366004614aa4565b611194565b3480156106d557600080fd5b506104296106e4366004614961565b611236565b3480156106f557600080fd5b5061044f6107043660046147e4565b611272565b34801561071557600080fd5b5060d0546001600160801b031661044f565b34801561073357600080fd5b5060d3546104a6906001600160a01b031681565b34801561075357600080fd5b50610591610762366004614a74565b6112c5565b34801561077357600080fd5b5060fb546104a6906001600160a01b031681565b34801561079357600080fd5b5060fa546104a6906001600160a01b031681565b3480156107b357600080fd5b506104a67f000000000000000000000000000000000000000000000000000000000000000081565b3480156107e757600080fd5b5061082e6107f63660046147e4565b60c96020526000908152604090205461ffff8116906201000081046001600160681b031690600160781b90046001600160801b031683565b6040805161ffff90941684526001600160681b0390921660208401526001600160801b031690820152606001610400565b34801561086b57600080fd5b5061044f610e1081565b34801561088157600080fd5b506104a67f000000000000000000000000000000000000000000000000000000000000000081565b3480156108b557600080fd5b5061059161135a565b3480156108ca57600080fd5b506105916108d9366004614a74565b611397565b3480156108ea57600080fd5b5061044f6108f93660046147e4565b6001600160a01b031660009081526097602052604090205490565b34801561092057600080fd5b5061059161145e565b34801561093557600080fd5b5061096b6109443660046147e4565b60cb6020526000908152604090205461ffff8116906201000090046001600160801b031682565b6040805161ffff90931683526001600160801b03909116602083015201610400565b34801561099957600080fd5b506105916109a8366004614a74565b611494565b3480156109b957600080fd5b5061044f6109c8366004614a74565b60ca6020526000908152604090205481565b3480156109e657600080fd5b5061044f60d55481565b3480156109fc57600080fd5b506104a67f000000000000000000000000000000000000000000000000000000000000000081565b348015610a3057600080fd5b5060d2546001600160a01b03166104a6565b348015610a4e57600080fd5b506065546001600160a01b03166104a6565b348015610a6c57600080fd5b506103f36116b2565b348015610a8157600080fd5b5061044f6116c1565b348015610a9657600080fd5b50610591610aa5366004614a74565b6116fb565b348015610ab657600080fd5b5060cc5460cd5460ce54610b069260ff808216936101008304909116926001600160a01b036201000090930483169282169166ffffffffffffff600160a01b90910416906001600160681b031686565b60408051961515875260ff90951660208701526001600160a01b03938416948601949094529116606084015266ffffffffffffff1660808301526001600160681b031660a082015260c001610400565b348015610b6257600080fd5b5060d15460d254610b8d916001600160a01b039081169190811690600160a01b900463ffffffff1683565b604080516001600160a01b03948516815293909216602084015263ffffffff1690820152606001610400565b348015610bc557600080fd5b5060d254600160a01b900463ffffffff1661044f565b348015610be757600080fd5b5060d1546001600160a01b03166104a6565b348015610c0557600080fd5b50610429610c14366004614961565b61182f565b348015610c2557600080fd5b5061044f60d65481565b348015610c3b57600080fd5b50610429610c4a366004614961565b6118c8565b348015610c5b57600080fd5b5060d4546104a6906001600160a01b031681565b348015610c7b57600080fd5b506104a67f000000000000000000000000000000000000000000000000000000000000000081565b348015610caf57600080fd5b5061044f6118d5565b348015610cc457600080fd5b5061044f62093a8081565b348015610cdb57600080fd5b50610591610cea366004614a74565b611974565b348015610cfb57600080fd5b50610591610d0a366004614a52565b611a02565b348015610d1b57600080fd5b5061044f60f65481565b348015610d3157600080fd5b5061044f610d403660046147e4565b611a98565b348015610d5157600080fd5b50610591610d603660046147e4565b611ab5565b348015610d7157600080fd5b50610591610d80366004614a74565b611b44565b348015610d9157600080fd5b5061044f610da0366004614800565b6001600160a01b03918216600090815260986020908152604080832093909416825291909152205490565b348015610dd757600080fd5b50610591610de6366004614838565b611b94565b348015610df757600080fd5b50610591610e063660046147e4565b611f33565b348015610e1757600080fd5b50610591612026565b348015610e2c57600080fd5b50610591610e3b3660046147e4565b61205e565b6105916120f9565b348015610e5457600080fd5b50610e68610e633660046147e4565b61223f565b60408051928352602083019190915201610400565b348015610e8957600080fd5b50610591612322565b348015610e9e57600080fd5b50610591610ead366004614a74565b612511565b348015610ebe57600080fd5b50610591610ecd366004614ac8565b6125b1565b6060609a8054610ee190614ff2565b80601f0160208091040260200160405190810160405280929190818152602001828054610f0d90614ff2565b8015610f5a5780601f10610f2f57610100808354040283529160200191610f5a565b820191906000526020600020905b815481529060010190602001808311610f3d57829003601f168201915b5050505050905090565b6000610f71338484612a49565b5060015b92915050565b6000610f88848484612b6e565b6001600160a01b0384166000908152609860209081526040808320338452909152902054828110156110125760405162461bcd60e51b815260206004820152602860248201527f45524332303a207472616e7366657220616d6f756e74206578636565647320616044820152676c6c6f77616e636560c01b60648201526084015b60405180910390fd5b61101f8533858403612a49565b60019150505b9392505050565b6002600154141561104f5760405162461bcd60e51b815260040161100990614d56565b6002600155806110715760405162461bcd60e51b815260040161100990614caf565b61107b6001612d3e565b60008061108783612e06565b909250905081156110c95760d0546110a8906001600160801b031683612f10565b60d080546001600160801b0319166001600160801b03929092169190911790555b60cf5461ffff168115611158576000806110e23361223f565b90925090506110f18282612f1c565b8411156111375760405162461bcd60e51b8152602060048201526014602482015273496e73756666696369656e742062616c616e636560601b6044820152606401611009565b8382101561114b5761114b60006001612f28565b61115533856130ff565b50505b600081815260ca602052604081205460cc5461117d918791610100900460ff1661324a565b905061118933826132ac565b505060018055505050565b600260015414156111b75760405162461bcd60e51b815260040161100990614d56565b6002600155816111f35760405162461bcd60e51b815260206004820152600760248201526608585b5bdd5b9d60ca1b6044820152606401611009565b6001600160a01b03811661120657600080fd5b611210828261340d565b60cc5461122e906201000090046001600160a01b031633308561369f565b505060018055565b3360008181526098602090815260408083206001600160a01b03871684529091528120549091610f7191859061126d908690614e6d565b612a49565b60cc5460009060ff61010090910416816112a861128e60995490565b6112966118d5565b60d0546001600160801b03168561370a565b90506112bd6112b685611a98565b828461324a565b949350505050565b6065546001600160a01b031633146112ef5760405162461bcd60e51b815260040161100990614d21565b600081116113295760405162461bcd60e51b81526020600482015260076024820152660216e65774361760cc1b6044820152606401611009565b6113328161374a565b60ce80546cffffffffffffffffffffffffff19166001600160681b0392909216919091179055565b6002600154141561137d5760405162461bcd60e51b815260040161100990614d56565b600260018190555061139160006001612f28565b60018055565b6065546001600160a01b031633146113c15760405162461bcd60e51b815260040161100990614d21565b6113cf620f42406064614f90565b811061141d5760405162461bcd60e51b815260206004820152601760248201527f496e76616c696420706572666f726d616e6365206665650000000000000000006044820152606401611009565b60d55460408051918252602082018390527f24867dfb6fcb9970a07be21024956524abe7a1837faa903ff0e99aaa40cf893e910160405180910390a160d555565b6065546001600160a01b031633146114885760405162461bcd60e51b815260040161100990614d21565b6114926000613794565b565b600260015414156114b75760405162461bcd60e51b815260040161100990614d56565b6002600155806114d95760405162461bcd60e51b815260040161100990614caf565b33600090815260c960205260409020546201000090046001600160681b0316151580611523575033600090815260c96020526040902054600160781b90046001600160801b031615155b156115345761153460006001612f28565b60cf5433600081815260cb60209081526040918290208054835187815261ffff96871693810184905292959194911685149290917f0c53c82ad07e2d592d88ece3b066777dd60f1118e2a081b380efc4358f0d9e2a910160405180910390a281546201000090046001600160801b0316600082156115bd576115b68287612f1c565b9050611620565b81156115ff5760405162461bcd60e51b81526020600482015260116024820152704578697374696e6720776974686472617760781b6044820152606401611009565b5033600090815260cb60205260409020805461ffff191661ffff8616179055845b611629816137e6565b33600090815260cb6020526040812080546001600160801b03808516620100000262010000600160901b03199092169190911790915560d05461167591600160801b9091041688612f1c565b9050611680816137e6565b60d080546001600160801b03808416600160801b0291161790556116a5333089612b6e565b5050600180555050505050565b6060609b8054610ee190614ff2565b60006116f66116cf60995490565b6116d76118d5565b60d05460cc546001600160801b0390911690610100900460ff1661370a565b905090565b6002600154141561171e5760405162461bcd60e51b815260040161100990614d56565b60026001558061175d5760405162461bcd60e51b815260206004820152600a602482015269216e756d526f756e647360b01b6044820152606401611009565b60cf5461ffff1660005b8281101561182657600061177b8284614e6d565b9050828110156117b85760405162461bcd60e51b81526020600482015260086024820152674f766572666c6f7760c01b6044820152606401611009565b600081815260ca6020526040902054156118025760405162461bcd60e51b815260206004820152600b60248201526a125b9a5d1a585b1a5e995960aa1b6044820152606401611009565b600090815260ca60205260409020600190558061181e81615027565b915050611767565b50506001805550565b3360009081526098602090815260408083206001600160a01b0386168452909152812054828110156118b15760405162461bcd60e51b815260206004820152602560248201527f45524332303a2064656372656173656420616c6c6f77616e63652062656c6f77604482015264207a65726f60d81b6064820152608401611009565b6118be3385858403612a49565b5060019392505050565b6000610f71338484612b6e565b60cc546040516370a0823160e01b81523060048201526000916116f691620100009091046001600160a01b0316906370a082319060240160206040518083038186803b15801561192457600080fd5b505afa158015611938573d6000803e3d6000fd5b505050506040513d601f19601f8201168201806040525081019061195c9190614a8c565b60cf546201000090046001600160681b031690612f1c565b600260015414156119975760405162461bcd60e51b815260040161100990614d56565b6002600155806119d35760405162461bcd60e51b815260206004820152600760248201526608585b5bdd5b9d60ca1b6044820152606401611009565b6119dd813361340d565b60cc546119fb906201000090046001600160a01b031633308461369f565b5060018055565b6065546001600160a01b03163314611a2c5760405162461bcd60e51b815260040161100990614d21565b60008161ffff16118015611a4e5750611a476064600a614f90565b8161ffff16105b611a8f5760405162461bcd60e51b815260206004820152601260248201527124b73b30b634b21030b63637b1b0ba34b7b760711b6044820152606401611009565b61ffff1660f655565b6000806000611aa68461223f565b90925090506112bd8282612f1c565b6065546001600160a01b03163314611adf5760405162461bcd60e51b815260040161100990614d21565b6001600160a01b038116611b225760405162461bcd60e51b815260206004820152600a60248201526910b732bba5b2b2b832b960b11b6044820152606401611009565b60d480546001600160a01b0319166001600160a01b0392909216919091179055565b60026001541415611b675760405162461bcd60e51b815260040161100990614d56565b600260015580611b895760405162461bcd60e51b815260040161100990614caf565b6119fb816000612f28565b600054610100900460ff1680611bad575060005460ff16155b611bc95760405162461bcd60e51b815260040161100990614cd3565b600054610100900460ff16158015611beb576000805461ffff19166101011790555b611bfb8c8c8c8c8c8c8c89613830565b6001600160a01b038516611c4c5760405162461bcd60e51b81526020600482015260186024820152770857d8dbdd5b9d195c9c185c9d1e551a195d1855985d5b1d60421b6044820152606401611009565b6001600160a01b038416611c9d5760405162461bcd60e51b81526020600482015260186024820152770857d8dbdd5b9d195c9c185c9d1e551a195d1855985d5b1d60421b6044820152606401611009565b60cc60000160029054906101000a90046001600160a01b03166001600160a01b0316856001600160a01b0316639fcc2d756040518163ffffffff1660e01b815260040160c06040518083038186803b158015611cf857600080fd5b505afa158015611d0c573d6000803e3d6000fd5b505050506040513d601f19601f82011682018060405250810190611d3091906149a8565b604001516001600160a01b031614611d965760405162461bcd60e51b815260206004820152602360248201527f215f636f756e746572706172747954686574615661756c743a2061737365742060448201526201010160ed1b6064820152608401611009565b60cc60000160029054906101000a90046001600160a01b03166001600160a01b0316846001600160a01b0316639fcc2d756040518163ffffffff1660e01b815260040160c06040518083038186803b158015611df157600080fd5b505afa158015611e05573d6000803e3d6000fd5b505050506040513d601f19601f82011682018060405250810190611e2991906149a8565b604001516001600160a01b031614611e835760405162461bcd60e51b815260206004820152601f60248201527f215f636f756e746572706172747954686574615661756c743a206173736574006044820152606401611009565b600083118015611e9d5750611e9a6064600a614f90565b83105b611ede5760405162461bcd60e51b815260206004820152601260248201527110afb7b83a34b7b720b63637b1b0ba34b7b760711b6044820152606401611009565b60fa80546001600160a01b038088166001600160a01b03199283161790925560fb80549287169290911691909117905560f68390558015611f25576000805461ff00191690555b505050505050505050505050565b6065546001600160a01b03163314611f5d5760405162461bcd60e51b815260040161100990614d21565b6001600160a01b038116611fa65760405162461bcd60e51b815260206004820152601060248201526f085b995dd19959549958da5c1a595b9d60821b6044820152606401611009565b60d3546001600160a01b03828116911614156120045760405162461bcd60e51b815260206004820152601860248201527f4d757374206265206e657720666565526563697069656e7400000000000000006044820152606401611009565b60d380546001600160a01b0319166001600160a01b0392909216919091179055565b600260015414156120495760405162461bcd60e51b815260040161100990614d56565b6002600155612056613a6f565b611391613b38565b6065546001600160a01b031633146120885760405162461bcd60e51b815260040161100990614d21565b6001600160a01b0381166120ed5760405162461bcd60e51b815260206004820152602660248201527f4f776e61626c653a206e6577206f776e657220697320746865207a65726f206160448201526564647265737360d01b6064820152608401611009565b6120f681613794565b50565b6002600154141561211c5760405162461bcd60e51b815260040161100990614d56565b600260015560cc547f00000000000000000000000000000000000000000000000000000000000000006001600160a01b0390811662010000909204161461218d5760405162461bcd60e51b8152602060048201526005602482015264042ae8aa8960db1b6044820152606401611009565b600034116121c65760405162461bcd60e51b81526020600482015260066024820152652176616c756560d01b6044820152606401611009565b6121d0343361340d565b7f00000000000000000000000000000000000000000000000000000000000000006001600160a01b031663d0e30db0346040518263ffffffff1660e01b81526004016000604051808303818588803b15801561222b57600080fd5b505af1158015611189573d6000803e3d6000fd5b6001600160a01b038116600090815260c9602090815260408083208151606081018352905461ffff81168083526201000082046001600160681b031694830194909452600160781b90046001600160801b0316918101919091528291600111156122c1575050506001600160a01b031660009081526097602052604081205491565b60cf54815161ffff908116600090815260ca602052604081205460cc5491936122f793869391169190610100900460ff16613bc7565b9050612318856001600160a01b031660009081526097602052604090205490565b9590945092505050565b600260015414156123455760405162461bcd60e51b815260040161100990614d56565b600260015533600090815260cb6020526040902080546001600160801b03620100008204169061ffff16816123ac5760405162461bcd60e51b815260206004820152600d60248201526c139bdd081a5b9a5d1a585d1959609a1b6044820152606401611009565b60cf5461ffff1681106123f45760405162461bcd60e51b815260206004820152601060248201526f149bdd5b99081b9bdd0818db1bdcd95960821b6044820152606401611009565b33600090815260cb60205260409020805462010000600160901b031916905560d05461243090600160801b90046001600160801b031683612f10565b60d080546001600160801b03928316600160801b029216919091179055600081815260ca602052604081205460cc5461247391859160ff6101009091041661324a565b604080518281526020810186905291925033917ff279e6a1f5e320cca91135676d9cb6e44ca8a08c0b88342bcdb1144f6511b568910160405180910390a26124bb30846130ff565b600081116124fd5760405162461bcd60e51b815260206004820152600f60248201526e085dda5d1a191c985dd05b5bdd5b9d608a1b6044820152606401611009565b61250733826132ac565b5050600180555050565b6065546001600160a01b0316331461253b5760405162461bcd60e51b815260040161100990614d21565b612549620f42406064614f90565b81106125905760405162461bcd60e51b8152602060048201526016602482015275496e76616c6964206d616e6167656d656e742066656560501b6044820152606401611009565b6125ab63031ba3096125a583620f4240613c38565b90613c44565b60d65550565b60d4546001600160a01b031633146125f55760405162461bcd60e51b815260206004820152600760248201526610b5b2b2b832b960c91b6044820152606401611009565b600260015414156126185760405162461bcd60e51b815260040161100990614d56565b6002600155600080612628613c50565b60f78190556040805161012081018252600080825260208201819052918101829052606081018290526080810182905260a0810182905260c0810182905260e08101829052610100810191909152919350915060fa60009054906101000a90046001600160a01b03166001600160a01b031663432833a66040518163ffffffff1660e01b815260040160206040518083038186803b1580156126c957600080fd5b505afa1580156126dd573d6000803e3d6000fd5b505050506040513d601f19601f820116820180604052508101906127019190614a8c565b60808201526001600160a01b037f000000000000000000000000000000000000000000000000000000000000000081166020830152838116825260cc5462010000810490911660408084019190915260ff6101009283900416606084015260a0830184905260f65460c084015260e083018790523391830191909152516395a170d760e01b81526000908190819073__$b8dfdbe756a4d5d6fec849b930740a032a$__906395a170d7906127b9908790600401614dcf565b60606040518083038186803b1580156127d157600080fd5b505af41580156127e5573d6000803e3d6000fd5b505050506040513d601f19601f820116820180604052508101906128099190614b16565b60f8805467ffffffffffffffff8316600160c01b026001600160c01b036001600160601b03808716600160601b026001600160c01b031990941690881617929092179190911617905560fb546040805163219419d360e11b815290519497509295509093506001600160a01b03169163432833a691600480820192602092909190829003018186803b15801561289e57600080fd5b505afa1580156128b2573d6000803e3d6000fd5b505050506040513d601f19601f820116820180604052508101906128d69190614a8c565b60808501526001600160a01b037f000000000000000000000000000000000000000000000000000000000000000081166020860152868116855260cc5462010000810490911660408087019190915260ff6101009283900416606087015260a0860187905260f65460c087015260e086018990523391860191909152516395a170d760e01b81526000908190819073__$b8dfdbe756a4d5d6fec849b930740a032a$__906395a170d79061298e908a90600401614dcf565b60606040518083038186803b1580156129a657600080fd5b505af41580156129ba573d6000803e3d6000fd5b505050506040513d601f19601f820116820180604052508101906129de9190614b16565b60f9805467ffffffffffffffff8316600160c01b026001600160c01b036001600160601b03808716600160601b026001600160c01b031990941690881617929092179190911617905591945092509050612a386000612d3e565b505060018055505050505050505050565b6001600160a01b038316612aab5760405162461bcd60e51b8152602060048201526024808201527f45524332303a20617070726f76652066726f6d20746865207a65726f206164646044820152637265737360e01b6064820152608401611009565b6001600160a01b038216612b0c5760405162461bcd60e51b815260206004820152602260248201527f45524332303a20617070726f766520746f20746865207a65726f206164647265604482015261737360f01b6064820152608401611009565b6001600160a01b0383811660008181526098602090815260408083209487168084529482529182902085905590518481527f8c5be1e5ebec7d5bd14f71427d1e84f3dd0314c0f7b2291e5b200ac8c7c3b92591015b60405180910390a3505050565b6001600160a01b038316612bd25760405162461bcd60e51b815260206004820152602560248201527f45524332303a207472616e736665722066726f6d20746865207a65726f206164604482015264647265737360d81b6064820152608401611009565b6001600160a01b038216612c345760405162461bcd60e51b815260206004820152602360248201527f45524332303a207472616e7366657220746f20746865207a65726f206164647260448201526265737360e81b6064820152608401611009565b6001600160a01b03831660009081526097602052604090205481811015612cac5760405162461bcd60e51b815260206004820152602660248201527f45524332303a207472616e7366657220616d6f756e7420657863656564732062604482015265616c616e636560d01b6064820152608401611009565b6001600160a01b03808516600090815260976020526040808220858503905591851681529081208054849290612ce3908490614e6d565b92505081905550826001600160a01b0316846001600160a01b03167fddf252ad1be2c89b69c2b068fc378daa952ba7f163c4a11628f55a4df523b3ef84604051612d2f91815260200190565b60405180910390a35b50505050565b60cf5461ffff16811580612d615750600081815260ca6020526040902054600110155b15612e0257612df2612d7260995490565b60cc546040516370a0823160e01b8152306004820152620100009091046001600160a01b0316906370a082319060240160206040518083038186803b158015612dba57600080fd5b505afa158015612dce573d6000803e3d6000fd5b505050506040513d601f19601f820116820180604052508101906116d79190614a8c565b600082815260ca60205260409020555b5050565b33600090815260c96020526040812060cf54815483929161ffff9182169116148015612e41575080546201000090046001600160681b031615155b15612f0757805461ffff8116600090815260ca602052604081205460cc549192612e8492620100009091046001600160681b03169190610100900460ff16613e62565b90506000612e928287613ec5565b9050612ec6612ea18383612f10565b845461ffff16600090815260ca602052604090205460cc54610100900460ff1661324a565b83546001600160681b039190911662010000026effffffffffffffffffffffffff00001990911617835580612efb8782612f10565b94509450505050915091565b50600093915050565b60006110258284614faf565b60006110258284614e6d565b33600090815260c9602090815260408083208151606081018352905461ffff8082168084526201000083046001600160681b031684870152600160781b9092046001600160801b03168385015260cf5491865260ca9094529184205460cc5491949290931692612fa39185918591610100900460ff16613bc7565b905083612fb05784612fb2565b805b945084612fc0575050505050565b808511156130045760405162461bcd60e51b81526020600482015260116024820152704578636565647320617661696c61626c6560781b6044820152606401611009565b825161ffff16821161301a57826020015161301d565b60005b33600090815260c96020526040902080546001600160681b039290921662010000026effffffffffffffffffffffffff000019909216919091179055613062856137e6565b61306c8186612f10565b33600081815260c960205260409081902080546001600160801b0394909416600160781b02600160781b600160f81b0319909416939093179092558451915190917fe5b754fb1abb7f01b499791d0b820ae3b6af3424ac1c59768edb53f4ec31a929916130e59189825261ffff16602082015260400190565b60405180910390a26130f8303387612b6e565b5050505050565b6001600160a01b03821661315f5760405162461bcd60e51b815260206004820152602160248201527f45524332303a206275726e2066726f6d20746865207a65726f206164647265736044820152607360f81b6064820152608401611009565b6001600160a01b038216600090815260976020526040902054818110156131d35760405162461bcd60e51b815260206004820152602260248201527f45524332303a206275726e20616d6f756e7420657863656564732062616c616e604482015261636560f01b6064820152608401611009565b6001600160a01b0383166000908152609760205260408120838303905560998054849290613202908490614faf565b90915550506040518281526000906001600160a01b038516907fddf252ad1be2c89b69c2b068fc378daa952ba7f163c4a11628f55a4df523b3ef90602001612b61565b505050565b6000600183116132945760405162461bcd60e51b8152602060048201526015602482015274496e76616c6964206173736574506572536861726560581b6044820152606401611009565b6112bd6132a283600a614ee8565b6125a58686613c38565b60cc546001600160a01b03620100009091048116907f0000000000000000000000000000000000000000000000000000000000000000168114156133f957604051632e1a7d4d60e01b8152600481018390527f00000000000000000000000000000000000000000000000000000000000000006001600160a01b031690632e1a7d4d90602401600060405180830381600087803b15801561334c57600080fd5b505af1158015613360573d6000803e3d6000fd5b505050506000836001600160a01b03168360405160006040518083038185875af1925050503d80600081146133b1576040519150601f19603f3d011682016040523d82523d6000602084013e6133b6565b606091505b5050905080612d385760405162461bcd60e51b815260206004820152600f60248201526e151c985b9cd9995c8819985a5b1959608a1b6044820152606401611009565b6132456001600160a01b0382168484613edb565b60cf5461ffff166000613428846134226118d5565b90612f1c565b60ce549091506001600160681b03168111156134735760405162461bcd60e51b815260206004820152600a6024820152690457863656564206361760b41b6044820152606401611009565b60cd54600160a01b900466ffffffffffffff168110156134cc5760405162461bcd60e51b8152602060048201526014602482015273496e73756666696369656e742062616c616e636560601b6044820152606401611009565b60408051858152602081018490526001600160a01b038516917f90890809c654f11d6e72a28fa60149770a0d11ec6c92319d6ceb2bb0a4ea1a15910160405180910390a26001600160a01b038316600090815260c9602090815260408083208151606081018352905461ffff81168083526201000082046001600160681b031683860152600160781b9091046001600160801b031682840152845260ca90925282205460cc5491929161358b918491879190610100900460ff16613bc7565b8251909150869061ffff168514156135bc5760208301516000906135b8906001600160681b031689612f1c565b9150505b6135c58161374a565b6040805160608101825261ffff80881682526001600160681b0380851660208085019182526001600160801b038089168688019081526001600160a01b038e16600090815260c990935296822095518654935197518216600160781b02600160781b600160f81b03199890951662010000026effffffffffffffffffffffffffffff1990941695169490941791909117949094161790915560d05461366b911689612f1c565b9050613676816137e6565b60d080546001600160801b0319166001600160801b039290921691909117905550505050505050565b6040516001600160a01b0380851660248301528316604482015260648101829052612d389085906323b872dd60e01b906084015b60408051601f198184030181529190526020810180516001600160e01b03166001600160e01b031990931692909217909152613f0b565b60008061371883600a614ee8565b9050600086116137285780613740565b613740866125a56137398888612f10565b8490613c38565b9695505050505050565b6001600160681b038111156120f65760405162461bcd60e51b815260206004820152601060248201526f13dd995c999b1bddc81d5a5b9d0c4c0d60821b6044820152606401611009565b606580546001600160a01b038381166001600160a01b0319831681179093556040519116919082907f8be0079c531659141344cd1fd0a4f28419497f9722a3daafe3b4186f6b6457e090600090a35050565b6001600160801b038111156120f65760405162461bcd60e51b815260206004820152601060248201526f09eeccae4ccd8deee40ead2dce86264760831b6044820152606401611009565b600054610100900460ff1680613849575060005460ff16155b6138655760405162461bcd60e51b815260040161100990614cd3565b600054610100900460ff16158015613887576000805461ffff19166101011790555b60405163c72733f760e01b815273__$b8dfdbe756a4d5d6fec849b930740a032a$__9063c72733f7906138cc908c908c908c908b908d908c908c908c90600401614ba2565b60006040518083038186803b1580156138e457600080fd5b505af41580156138f8573d6000803e3d6000fd5b50505050613904613fdd565b61390e8484614050565b6139166140cf565b61391f8961205e565b60d480546001600160a01b03808b166001600160a01b03199283161790925560d38054928a169290911691909117905560d585905561396963031ba3096125a588620f4240613c38565b60d6558160cc6139798282615095565b505060cc546040516370a0823160e01b81523060048201526000916201000090046001600160a01b0316906370a082319060240160206040518083038186803b1580156139c557600080fd5b505afa1580156139d9573d6000803e3d6000fd5b505050506040513d601f19601f820116820180604052508101906139fd9190614a8c565b9050613a088161374a565b60cf805461ffff196001600160681b03909316600160781b02929092167fffffffff00000000000000000000000000ffffffffffffffffffffffffff00009092169190911760011790558015613a64576000805461ff00191690555b505050505050505050565b60026001541415613a925760405162461bcd60e51b815260040161100990614d56565b600260015560fa546040516307cc423960e01b815273__$b8dfdbe756a4d5d6fec849b930740a032a$__916307cc423991613afe9160f8917f0000000000000000000000000000000000000000000000000000000000000000916001600160a01b031690600401614d8d565b60006040518083038186803b158015613b1657600080fd5b505af4158015613b2a573d6000803e3d6000fd5b505050506113916000612d3e565b60026001541415613b5b5760405162461bcd60e51b815260040161100990614d56565b600260015560fb546040516307cc423960e01b815273__$b8dfdbe756a4d5d6fec849b930740a032a$__916307cc423991613afe9160f9917f0000000000000000000000000000000000000000000000000000000000000000916001600160a01b031690600401614d8d565b835160009061ffff1615801590613be25750845161ffff1684115b15613c24576000613c0186602001516001600160681b03168585613e62565b6040870151909150613c1c906001600160801b031682612f1c565b9150506112bd565b50505050604001516001600160801b031690565b60006110258284614f90565b60006110258284614e85565b60d2546000908190600160a01b900463ffffffff16421015613c9d5760405162461bcd60e51b815260206004820152600660248201526521726561647960d01b6044820152606401611009565b60d1546001600160a01b0316915081613ce65760405162461bcd60e51b815260206004820152600b60248201526a10b732bc3a27b83a34b7b760a91b6044820152606401611009565b600080600073__$b8dfdbe756a4d5d6fec849b930740a032a$__63d7975f15613d0e60995490565b60cc5460d05460405160e085901b6001600160e01b031916815260048101939093526201000082046001600160a01b0316602484015261010090910460ff1660448301526001600160801b038082166064840152600160801b90910416608482015260a40160606040518083038186803b158015613d8b57600080fd5b505af4158015613d9f573d6000803e3d6000fd5b505050506040513d601f19601f82011682018060405250810190613dc39190614ae9565b60d280546001600160a01b038a166001600160a01b03199182161790915560d18054909116905560cf5461ffff16600081815260ca602052604090208390559295509093509150613e1d613e1685614136565b8590612f10565b60d080546001600160801b03191690559450613e3a816001614e6d565b60cf805461ffff191661ffff92909216919091179055613e5a308361426a565b505050509091565b600060018311613eac5760405162461bcd60e51b8152602060048201526015602482015274496e76616c6964206173736574506572536861726560581b6044820152606401611009565b6112bd836125a5613ebe85600a614ee8565b8790613c38565b6000818310613ed45781611025565b5090919050565b6040516001600160a01b03831660248201526044810182905261324590849063a9059cbb60e01b906064016136d3565b6000613f60826040518060400160405280602081526020017f5361666545524332303a206c6f772d6c6576656c2063616c6c206661696c6564815250856001600160a01b03166143499092919063ffffffff16565b8051909150156132455780806020019051810190613f7e919061498c565b6132455760405162461bcd60e51b815260206004820152602a60248201527f5361666545524332303a204552433230206f7065726174696f6e20646964206e6044820152691bdd081cdd58d8d9595960b21b6064820152608401611009565b600054610100900460ff1680613ff6575060005460ff16155b6140125760405162461bcd60e51b815260040161100990614cd3565b600054610100900460ff16158015614034576000805461ffff19166101011790555b61403c614358565b80156120f6576000805461ff001916905550565b600054610100900460ff1680614069575060005460ff16155b6140855760405162461bcd60e51b815260040161100990614cd3565b600054610100900460ff161580156140a7576000805461ffff19166101011790555b6140af6143c7565b6140b98383614431565b8015613245576000805461ff0019169055505050565b600054610100900460ff16806140e8575060005460ff16155b6141045760405162461bcd60e51b815260040161100990614cd3565b600054610100900460ff16158015614126576000805461ffff19166101011790555b61412e6143c7565b61403c6144c6565b60cf5460d054600091600160781b90046001600160681b03169082906141669085906001600160801b0316612f10565b9050600080838311156141ef57600060d554116141845760006141ac565b6141ac614195620f42406064614f90565b60d5546125a5906141a68789612f10565b90613c38565b905060008060d654116141c05760006141df565b6141df6141d1620f42406064614f90565b60d6546125a5908a90613c38565b90506141eb8282612f1c565b9250505b81156142615760d35461420b906001600160a01b0316836132ac565b60d35460cf54604080518481526020810186905261ffff90921682820152516001600160a01b03909216917f0a242f7ecaf711036ca770774ceffae28e60ef042ac113ddd187f2631db0c0069181900360600190a25b50949350505050565b6001600160a01b0382166142c05760405162461bcd60e51b815260206004820152601f60248201527f45524332303a206d696e7420746f20746865207a65726f2061646472657373006044820152606401611009565b80609960008282546142d29190614e6d565b90915550506001600160a01b038216600090815260976020526040812080548392906142ff908490614e6d565b90915550506040518181526001600160a01b038316906000907fddf252ad1be2c89b69c2b068fc378daa952ba7f163c4a11628f55a4df523b3ef9060200160405180910390a35050565b60606112bd8484600085614526565b600054610100900460ff1680614371575060005460ff16155b61438d5760405162461bcd60e51b815260040161100990614cd3565b600054610100900460ff161580156143af576000805461ffff19166101011790555b6001805580156120f6576000805461ff001916905550565b600054610100900460ff16806143e0575060005460ff16155b6143fc5760405162461bcd60e51b815260040161100990614cd3565b600054610100900460ff1615801561403c576000805461ffff191661010117905580156120f6576000805461ff001916905550565b600054610100900460ff168061444a575060005460ff16155b6144665760405162461bcd60e51b815260040161100990614cd3565b600054610100900460ff16158015614488576000805461ffff19166101011790555b825161449b90609a906020860190614687565b5081516144af90609b906020850190614687565b508015613245576000805461ff0019169055505050565b600054610100900460ff16806144df575060005460ff16155b6144fb5760405162461bcd60e51b815260040161100990614cd3565b600054610100900460ff1615801561451d576000805461ffff19166101011790555b61403c33613794565b6060824710156145875760405162461bcd60e51b815260206004820152602660248201527f416464726573733a20696e73756666696369656e742062616c616e636520666f6044820152651c8818d85b1b60d21b6064820152608401611009565b843b6145d55760405162461bcd60e51b815260206004820152601d60248201527f416464726573733a2063616c6c20746f206e6f6e2d636f6e74726163740000006044820152606401611009565b600080866001600160a01b031685876040516145f19190614b86565b60006040518083038185875af1925050503d806000811461462e576040519150601f19603f3d011682016040523d82523d6000602084013e614633565b606091505b509150915061464382828661464e565b979650505050505050565b6060831561465d575081611025565b82511561466d5782518084602001fd5b8160405162461bcd60e51b81526004016110099190614c9c565b82805461469390614ff2565b90600052602060002090601f0160209004810192826146b557600085556146fb565b82601f106146ce57805160ff19168380011785556146fb565b828001600101855582156146fb579182015b828111156146fb5782518255916020019190600101906146e0565b5061470792915061470b565b5090565b5b80821115614707576000815560010161470c565b803561472b816151a6565b919050565b600082601f830112614740578081fd5b813567ffffffffffffffff8082111561475b5761475b615058565b604051601f8301601f19908116603f0116810190828211818310171561478357614783615058565b8160405283815286602085880101111561479b578485fd5b8360208701602083013792830160200193909352509392505050565b600060c082840312156147c8578081fd5b50919050565b803561472b816151c9565b803561472b816151de565b6000602082840312156147f5578081fd5b8135611025816151a6565b60008060408385031215614812578081fd5b823561481d816151a6565b9150602083013561482d816151a6565b809150509250929050565b60008060008060008060008060008060006102008c8e031215614859578687fd5b6148628c614720565b9a5061487060208d01614720565b995061487e60408d01614720565b985060608c0135975060808c0135965067ffffffffffffffff8060a08e013511156148a7578687fd5b6148b78e60a08f01358f01614730565b96508060c08e013511156148c9578586fd5b506148da8d60c08e01358e01614730565b94506148e860e08d01614720565b93506148f76101008d01614720565b92506101208c0135915061490f8d6101408e016147b7565b90509295989b509295989b9093969950565b600080600060608486031215614935578283fd5b8335614940816151a6565b92506020840135614950816151a6565b929592945050506040919091013590565b60008060408385031215614973578182fd5b823561497e816151a6565b946020939093013593505050565b60006020828403121561499d578081fd5b8151611025816151bb565b600060c082840312156149b9578081fd5b60405160c0810181811067ffffffffffffffff821117156149dc576149dc615058565b60405282516149ea816151bb565b815260208301516149fa816151f3565b60208201526040830151614a0d816151a6565b60408201526060830151614a20816151a6565b60608201526080830151614a33816151de565b608082015260a0830151614a46816151c9565b60a08201529392505050565b600060208284031215614a63578081fd5b813561ffff81168114611025578182fd5b600060208284031215614a85578081fd5b5035919050565b600060208284031215614a9d578081fd5b5051919050565b60008060408385031215614ab6578182fd5b82359150602083013561482d816151a6565b60008060408385031215614ada578182fd5b50508035926020909101359150565b600080600060608486031215614afd578081fd5b8351925060208401519150604084015190509250925092565b600080600060608486031215614b2a578081fd5b8351925060208401519150604084015167ffffffffffffffff81168114614b4f578182fd5b809150509250925092565b60008151808452614b72816020860160208601614fc6565b601f01601f19169290920160200192915050565b60008251614b98818460208701614fc6565b9190910192915050565b60006101a060018060a01b03808c168452808b166020850152808a1660408501528860608501528760808501528160a0850152614be182850188614b5a565b915083820360c0850152614bf58287614b5a565b925084359150614c04826151bb565b90151560e0840152602084013590614c1b826151f3565b60ff821661010085015260408501359150614c35826151a6565b16610120830152614c4860608401614720565b6001600160a01b0316610140830152614c63608084016147d9565b66ffffffffffffff16610160830152614c7e60a084016147ce565b6001600160681b038116610180840152509998505050505050505050565b6020815260006110256020830184614b5a565b6020808252600a9082015269216e756d53686172657360b01b604082015260600190565b6020808252602e908201527f496e697469616c697a61626c653a20636f6e747261637420697320616c72656160408201526d191e481a5b9a5d1a585b1a5e995960921b606082015260800190565b6020808252818101527f4f776e61626c653a2063616c6c6572206973206e6f7420746865206f776e6572604082015260600190565b6020808252601f908201527f5265656e7472616e637947756172643a207265656e7472616e742063616c6c00604082015260600190565b92546001600160601b038082168552606082811c909116602086015260c09190911c60408501526001600160a01b039283169084015216608082015260a00190565b81516001600160a01b03168152602080830151610120830191614dfc908401826001600160a01b03169052565b506040830151614e1760408401826001600160a01b03169052565b50606083015160608301526080830151608083015260a083015160a083015260c083015160c083015260e083015160e083015261010080840151614e65828501826001600160a01b03169052565b505092915050565b60008219821115614e8057614e80615042565b500190565b600082614ea057634e487b7160e01b81526012600452602481fd5b500490565b600181815b80851115614ee0578160001904821115614ec657614ec6615042565b80851615614ed357918102915b93841c9390800290614eaa565b509250929050565b60006110258383600082614efe57506001610f75565b81614f0b57506000610f75565b8160018114614f215760028114614f2b57614f47565b6001915050610f75565b60ff841115614f3c57614f3c615042565b50506001821b610f75565b5060208310610133831016604e8410600b8410161715614f6a575081810a610f75565b614f748383614ea5565b8060001904821115614f8857614f88615042565b029392505050565b6000816000190483118215151615614faa57614faa615042565b500290565b600082821015614fc157614fc1615042565b500390565b60005b83811015614fe1578181015183820152602001614fc9565b83811115612d385750506000910152565b600181811c9082168061500657607f821691505b602082108114156147c857634e487b7160e01b600052602260045260246000fd5b600060001982141561503b5761503b615042565b5060010190565b634e487b7160e01b600052601160045260246000fd5b634e487b7160e01b600052604160045260246000fd5b60008135610f75816151a6565b60008135610f75816151c9565b60008135610f75816151de565b81356150a0816151bb565b815460ff19811691151560ff16918217835560208401356150c0816151f3565b61ff008160081b169050808361ffff1984161717845560408501356150e4816151a6565b6001600160b01b0319929092169092179190911760109190911b62010000600160b01b03161781556001810161513c61511f6060850161506e565b82546001600160a01b0319166001600160a01b0391909116178255565b61517561514b60808501615088565b82805466ffffffffffffff60a01b191660a09290921b66ffffffffffffff60a01b16919091179055565b50612e0261518560a0840161507b565b600283016001600160681b0382166001600160681b03198254161781555050565b6001600160a01b03811681146120f657600080fd5b80151581146120f657600080fd5b6001600160681b03811681146120f657600080fd5b66ffffffffffffff811681146120f657600080fd5b60ff811681146120f657600080fdfea2646970667358221220931ebdddd54e93dcbb468e10b4dee5b9e67e2e18ba22b526b430aa75aba59fce64736f6c63430008040033",
  "linkReferences": {
    "contracts/V2/libraries/VaultLifecycle.sol": {
      "VaultLifecycle": [
        {
          "length": 20,
          "start": 10962
        },
        {
          "length": 20,
          "start": 11431
        },
        {
          "length": 20,
          "start": 15319
        },
        {
          "length": 20,
          "start": 15850
        },
        {
          "length": 20,
          "start": 16051
        },
        {
          "length": 20,
          "start": 16430
        }
      ]
    }
  },
  "deployedLinkReferences": {
    "contracts/V2/libraries/VaultLifecycle.sol": {
      "VaultLifecycle": [
        {
          "length": 20,
          "start": 10129
        },
        {
          "length": 20,
          "start": 10598
        },
        {
          "length": 20,
          "start": 14486
        },
        {
          "length": 20,
          "start": 15017
        },
        {
          "length": 20,
          "start": 15218
        },
        {
          "length": 20,
          "start": 15597
        }
      ]
    }
  }
}