{
  "_format": "hh-sol-artifact-1",
  "contractName": "IRibbonVault",
  "sourceName": "contracts/V2/interfaces/IRibbonVault.sol",
  "abi": [
    {
      "inputs": [
        {
          "internalType": "address",
          "name": "account",
          "type": "address"
        }
      ],
      "name": "accountVaultBalance",
      "outputs": [
        {
          "internalType": "uint256",
          "name": "",
          "type": "uint256"
        }
      ],
      "stateMutability": "view",
      "type": "function"
    },
    {
      "inputs": [],
      "name": "cap",
      "outputs": [
        {
          "internalType": "uint256",
          "name": "",
          "type": "uint256"
        }
      ],
      "stateMutability": "view",
      "type": "function"
    },
    {
      "inputs": [],
      "name": "completeWithdraw",
      "outputs": [],
      "stateMutability": "nonpayable",
      "type": "function"
    },
    {
      "inputs": [],
      "name": "decimals",
      "outputs": [
        {
          "internalType": "uint8",
          "name": "",
          "type": "uint8"
        }
      ],
      "stateMutability": "view",
      "type": "function"
    },
    {
      "inputs": [
        {
          "internalType": "uint256",
          "name": "amount",
          "type": "uint256"
        }
      ],
      "name": "deposit",
      "outputs": [],
      "stateMutability": "nonpayable",
      "type": "function"
    },
    {
      "inputs": [
        {
          "internalType": "uint256",
          "name": "amount",
          "type": "uint256"
        },
        {
          "internalType": "address",
          "name": "creditor",
          "type": "address"
        }
      ],
      "name": "depositFor",
      "outputs": [],
      "stateMutability": "nonpayable",
      "type": "function"
    },
    {
      "inputs": [
        {
          "internalType": "uint128",
          "name": "shares",
          "type": "uint128"
        }
      ],
      "name": "initiateWithdraw",
      "outputs": [],
      "stateMutability": "nonpayable",
      "type": "function"
    },
    {
      "inputs": [],
      "name": "pricePerShare",
      "outputs": [
        {
          "internalType": "uint256",
          "name": "",
          "type": "uint256"
        }
      ],
      "stateMutability": "view",
      "type": "function"
    },
    {
      "inputs": [
        {
          "internalType": "address",
          "name": "account",
          "type": "address"
        }
      ],
      "name": "shareBalances",
      "outputs": [
        {
          "internalType": "uint256",
          "name": "heldByAccount",
          "type": "uint256"
        },
        {
          "internalType": "uint256",
          "name": "heldByVault",
          "type": "uint256"
        }
      ],
      "stateMutability": "view",
      "type": "function"
    },
    {
      "inputs": [
        {
          "internalType": "address",
          "name": "account",
          "type": "address"
        }
      ],
      "name": "shares",
      "outputs": [
        {
          "internalType": "uint256",
          "name": "",
          "type": "uint256"
        }
      ],
      "stateMutability": "view",
      "type": "function"
    },
    {
      "inputs": [],
      "name": "totalBalance",
      "outputs": [
        {
          "internalType": "uint256",
          "name": "",
          "type": "uint256"
        }
      ],
      "stateMutability": "view",
      "type": "function"
    },
    {
      "inputs": [],
      "name": "totalPending",
      "outputs": [
        {
          "internalType": "uint256",
          "name": "",
          "type": "uint256"
        }
      ],
      "stateMutability": "view",
      "type": "function"
    },
    {
      "inputs": [
        {
          "internalType": "uint256",
          "name": "amount",
          "type": "uint256"
        }
      ],
      "name": "withdrawInstantly",
      "outputs": [],
      "stateMutability": "nonpayable",
      "type": "function"
    }
  ],
  "bytecode": "0x608060405234801561001057600080fd5b50610251806100206000396000f3fe608060405234801561001057600080fd5b50600436106100cf5760003560e01c80635dc25e7b1161008c578063b6b55f2511610066578063b6b55f25146100d4578063ce7c2ac21461011e578063f656ba5114610140578063f756fa21146100e557600080fd5b80635dc25e7b1461013257806399530b06146100fb578063ad7a672f146100fb57600080fd5b80632775d01c146100d4578063313ce567146100e7578063355274ea146100fb57806336efd16f1461010c5780633f23bb731461011e5780633f90916a146100fb575b600080fd5b6100e56100e23660046101d8565b50565b005b604051600081526020015b60405180910390f35b60005b6040519081526020016100f2565b6100e561011a3660046101f0565b5050565b6100fe61012c366004610187565b50600090565b6100e56100e23660046101a8565b61015661014e366004610187565b600080915091565b604080519283526020830191909152016100f2565b80356001600160a01b038116811461018257600080fd5b919050565b600060208284031215610198578081fd5b6101a18261016b565b9392505050565b6000602082840312156101b9578081fd5b81356fffffffffffffffffffffffffffffffff811681146101a1578182fd5b6000602082840312156101e9578081fd5b5035919050565b60008060408385031215610202578081fd5b823591506102126020840161016b565b9050925092905056fea2646970667358221220cd3b33da1dfdcb07fae1c46069a1c921a112b09ea644791ca2dd482299a8e28264736f6c63430008040033",
  "linkReferences": {},
  "deployedLinkReferences": {}
}