{
  "_format": "hh-sol-artifact-1",
  "contractName": "RibbonVaultBase",
  "sourceName": "contracts/V2/base/RibbonVaultBase.sol",
  "abi": [
    {
      "inputs": [
        {
          "internalType": "address",
          "name": "_weth",
          "type": "address"
        }
      ],
      "stateMutability": "nonpayable",
      "type": "constructor"
    },
    {
      "anonymous": false,
      "inputs": [
        {
          "indexed": true,
          "internalType": "address",
          "name": "owner",
          "type": "address"
        },
        {
          "indexed": true,
          "internalType": "address",
          "name": "spender",
          "type": "address"
        },
        {
          "indexed": false,
          "internalType": "uint256",
          "name": "value",
          "type": "uint256"
        }
      ],
      "name": "Approval",
      "type": "event"
    },
    {
      "anonymous": false,
      "inputs": [
        {
          "indexed": false,
          "internalType": "uint256",
          "name": "oldCap",
          "type": "uint256"
        },
        {
          "indexed": false,
          "internalType": "uint256",
          "name": "newCap",
          "type": "uint256"
        },
        {
          "indexed": false,
          "internalType": "address",
          "name": "manager",
          "type": "address"
        }
      ],
      "name": "CapSet",
      "type": "event"
    },
    {
      "anonymous": false,
      "inputs": [
        {
          "indexed": false,
          "internalType": "uint256",
          "name": "performanceFee",
          "type": "uint256"
        },
        {
          "indexed": false,
          "internalType": "uint256",
          "name": "vaultFee",
          "type": "uint256"
        },
        {
          "indexed": false,
          "internalType": "uint256",
          "name": "round",
          "type": "uint256"
        },
        {
          "indexed": true,
          "internalType": "address",
          "name": "feeRecipient",
          "type": "address"
        }
      ],
      "name": "CollectVaultFees",
      "type": "event"
    },
    {
      "anonymous": false,
      "inputs": [
        {
          "indexed": true,
          "internalType": "address",
          "name": "account",
          "type": "address"
        },
        {
          "indexed": false,
          "internalType": "uint256",
          "name": "amount",
          "type": "uint256"
        },
        {
          "indexed": false,
          "internalType": "uint256",
          "name": "round",
          "type": "uint256"
        }
      ],
      "name": "Deposit",
      "type": "event"
    },
    {
      "anonymous": false,
      "inputs": [
        {
          "indexed": true,
          "internalType": "address",
          "name": "account",
          "type": "address"
        },
        {
          "indexed": false,
          "internalType": "uint256",
          "name": "shares",
          "type": "uint256"
        },
        {
          "indexed": false,
          "internalType": "uint256",
          "name": "round",
          "type": "uint256"
        }
      ],
      "name": "InitiateWithdraw",
      "type": "event"
    },
    {
      "anonymous": false,
      "inputs": [
        {
          "indexed": true,
          "internalType": "address",
          "name": "account",
          "type": "address"
        },
        {
          "indexed": false,
          "internalType": "uint256",
          "name": "amount",
          "type": "uint256"
        },
        {
          "indexed": false,
          "internalType": "uint256",
          "name": "round",
          "type": "uint256"
        }
      ],
      "name": "InstantWithdraw",
      "type": "event"
    },
    {
      "anonymous": false,
      "inputs": [
        {
          "indexed": false,
          "internalType": "uint256",
          "name": "managementFee",
          "type": "uint256"
        },
        {
          "indexed": false,
          "internalType": "uint256",
          "name": "newManagementFee",
          "type": "uint256"
        }
      ],
      "name": "ManagementFeeSet",
      "type": "event"
    },
    {
      "anonymous": false,
      "inputs": [
        {
          "indexed": true,
          "internalType": "address",
          "name": "previousOwner",
          "type": "address"
        },
        {
          "indexed": true,
          "internalType": "address",
          "name": "newOwner",
          "type": "address"
        }
      ],
      "name": "OwnershipTransferred",
      "type": "event"
    },
    {
      "anonymous": false,
      "inputs": [
        {
          "indexed": false,
          "internalType": "uint256",
          "name": "performanceFee",
          "type": "uint256"
        },
        {
          "indexed": false,
          "internalType": "uint256",
          "name": "newPerformanceFee",
          "type": "uint256"
        }
      ],
      "name": "PerformanceFeeSet",
      "type": "event"
    },
    {
      "anonymous": false,
      "inputs": [
        {
          "indexed": true,
          "internalType": "address",
          "name": "account",
          "type": "address"
        },
        {
          "indexed": false,
          "internalType": "uint256",
          "name": "share",
          "type": "uint256"
        },
        {
          "indexed": false,
          "internalType": "uint256",
          "name": "round",
          "type": "uint256"
        }
      ],
      "name": "Redeem",
      "type": "event"
    },
    {
      "anonymous": false,
      "inputs": [
        {
          "indexed": true,
          "internalType": "address",
          "name": "from",
          "type": "address"
        },
        {
          "indexed": true,
          "internalType": "address",
          "name": "to",
          "type": "address"
        },
        {
          "indexed": false,
          "internalType": "uint256",
          "name": "value",
          "type": "uint256"
        }
      ],
      "name": "Transfer",
      "type": "event"
    },
    {
      "anonymous": false,
      "inputs": [
        {
          "indexed": true,
          "internalType": "address",
          "name": "account",
          "type": "address"
        },
        {
          "indexed": false,
          "internalType": "uint256",
          "name": "amount",
          "type": "uint256"
        },
        {
          "indexed": false,
          "internalType": "uint256",
          "name": "shares",
          "type": "uint256"
        }
      ],
      "name": "Withdraw",
      "type": "event"
    },
    {
      "inputs": [],
      "name": "WETH",
      "outputs": [
        {
          "internalType": "address",
          "name": "",
          "type": "address"
        }
      ],
      "stateMutability": "view",
      "type": "function"
    },
    {
      "inputs": [
        {
          "internalType": "address",
          "name": "account",
          "type": "address"
        }
      ],
      "name": "accountVaultBalance",
      "outputs": [
        {
          "internalType": "uint256",
          "name": "",
          "type": "uint256"
        }
      ],
      "stateMutability": "view",
      "type": "function"
    },
    {
      "inputs": [
        {
          "internalType": "address",
          "name": "owner",
          "type": "address"
        },
        {
          "internalType": "address",
          "name": "spender",
          "type": "address"
        }
      ],
      "name": "allowance",
      "outputs": [
        {
          "internalType": "uint256",
          "name": "",
          "type": "uint256"
        }
      ],
      "stateMutability": "view",
      "type": "function"
    },
    {
      "inputs": [
        {
          "internalType": "address",
          "name": "spender",
          "type": "address"
        },
        {
          "internalType": "uint256",
          "name": "amount",
          "type": "uint256"
        }
      ],
      "name": "approve",
      "outputs": [
        {
          "internalType": "bool",
          "name": "",
          "type": "bool"
        }
      ],
      "stateMutability": "nonpayable",
      "type": "function"
    },
    {
      "inputs": [
        {
          "internalType": "address",
          "name": "account",
          "type": "address"
        }
      ],
      "name": "balanceOf",
      "outputs": [
        {
          "internalType": "uint256",
          "name": "",
          "type": "uint256"
        }
      ],
      "stateMutability": "view",
      "type": "function"
    },
    {
      "inputs": [],
      "name": "cap",
      "outputs": [
        {
          "internalType": "uint256",
          "name": "",
          "type": "uint256"
        }
      ],
      "stateMutability": "view",
      "type": "function"
    },
    {
      "inputs": [],
      "name": "completeWithdraw",
      "outputs": [],
      "stateMutability": "nonpayable",
      "type": "function"
    },
    {
      "inputs": [],
      "name": "decimals",
      "outputs": [
        {
          "internalType": "uint8",
          "name": "",
          "type": "uint8"
        }
      ],
      "stateMutability": "view",
      "type": "function"
    },
    {
      "inputs": [
        {
          "internalType": "address",
          "name": "spender",
          "type": "address"
        },
        {
          "internalType": "uint256",
          "name": "subtractedValue",
          "type": "uint256"
        }
      ],
      "name": "decreaseAllowance",
      "outputs": [
        {
          "internalType": "bool",
          "name": "",
          "type": "bool"
        }
      ],
      "stateMutability": "nonpayable",
      "type": "function"
    },
    {
      "inputs": [
        {
          "internalType": "uint256",
          "name": "amount",
          "type": "uint256"
        }
      ],
      "name": "deposit",
      "outputs": [],
      "stateMutability": "nonpayable",
      "type": "function"
    },
    {
      "inputs": [
        {
          "internalType": "uint256",
          "name": "amount",
          "type": "uint256"
        },
        {
          "internalType": "address",
          "name": "creditor",
          "type": "address"
        }
      ],
      "name": "depositFor",
      "outputs": [],
      "stateMutability": "nonpayable",
      "type": "function"
    },
    {
      "inputs": [
        {
          "internalType": "address",
          "name": "",
          "type": "address"
        }
      ],
      "name": "depositReceipts",
      "outputs": [
        {
          "internalType": "uint16",
          "name": "round",
          "type": "uint16"
        },
        {
          "internalType": "uint104",
          "name": "amount",
          "type": "uint104"
        },
        {
          "internalType": "uint128",
          "name": "unredeemedShares",
          "type": "uint128"
        }
      ],
      "stateMutability": "view",
      "type": "function"
    },
    {
      "inputs": [],
      "name": "feeRecipient",
      "outputs": [
        {
          "internalType": "address",
          "name": "",
          "type": "address"
        }
      ],
      "stateMutability": "view",
      "type": "function"
    },
    {
      "inputs": [
        {
          "internalType": "address",
          "name": "spender",
          "type": "address"
        },
        {
          "internalType": "uint256",
          "name": "addedValue",
          "type": "uint256"
        }
      ],
      "name": "increaseAllowance",
      "outputs": [
        {
          "internalType": "bool",
          "name": "",
          "type": "bool"
        }
      ],
      "stateMutability": "nonpayable",
      "type": "function"
    },
    {
      "inputs": [
        {
          "internalType": "uint256",
          "name": "numRounds",
          "type": "uint256"
        }
      ],
      "name": "initRounds",
      "outputs": [],
      "stateMutability": "nonpayable",
      "type": "function"
    },
    {
      "inputs": [
        {
          "internalType": "uint256",
          "name": "numShares",
          "type": "uint256"
        }
      ],
      "name": "initiateWithdraw",
      "outputs": [],
      "stateMutability": "nonpayable",
      "type": "function"
    },
    {
      "inputs": [],
      "name": "keeper",
      "outputs": [
        {
          "internalType": "address",
          "name": "",
          "type": "address"
        }
      ],
      "stateMutability": "view",
      "type": "function"
    },
    {
      "inputs": [],
      "name": "managementFee",
      "outputs": [
        {
          "internalType": "uint256",
          "name": "",
          "type": "uint256"
        }
      ],
      "stateMutability": "view",
      "type": "function"
    },
    {
      "inputs": [],
      "name": "maxRedeem",
      "outputs": [],
      "stateMutability": "nonpayable",
      "type": "function"
    },
    {
      "inputs": [],
      "name": "name",
      "outputs": [
        {
          "internalType": "string",
          "name": "",
          "type": "string"
        }
      ],
      "stateMutability": "view",
      "type": "function"
    },
    {
      "inputs": [],
      "name": "optionState",
      "outputs": [
        {
          "internalType": "address",
          "name": "nextOption",
          "type": "address"
        },
        {
          "internalType": "address",
          "name": "currentOption",
          "type": "address"
        },
        {
          "internalType": "uint32",
          "name": "nextOptionReadyAt",
          "type": "uint32"
        }
      ],
      "stateMutability": "view",
      "type": "function"
    },
    {
      "inputs": [],
      "name": "owner",
      "outputs": [
        {
          "internalType": "address",
          "name": "",
          "type": "address"
        }
      ],
      "stateMutability": "view",
      "type": "function"
    },
    {
      "inputs": [],
      "name": "performanceFee",
      "outputs": [
        {
          "internalType": "uint256",
          "name": "",
          "type": "uint256"
        }
      ],
      "stateMutability": "view",
      "type": "function"
    },
    {
      "inputs": [],
      "name": "pricePerShare",
      "outputs": [
        {
          "internalType": "uint256",
          "name": "",
          "type": "uint256"
        }
      ],
      "stateMutability": "view",
      "type": "function"
    },
    {
      "inputs": [
        {
          "internalType": "uint256",
          "name": "numShares",
          "type": "uint256"
        }
      ],
      "name": "redeem",
      "outputs": [],
      "stateMutability": "nonpayable",
      "type": "function"
    },
    {
      "inputs": [],
      "name": "renounceOwnership",
      "outputs": [],
      "stateMutability": "nonpayable",
      "type": "function"
    },
    {
      "inputs": [],
      "name": "rollVault",
      "outputs": [],
      "stateMutability": "nonpayable",
      "type": "function"
    },
    {
      "inputs": [
        {
          "internalType": "uint256",
          "name": "",
          "type": "uint256"
        }
      ],
      "name": "roundPricePerShare",
      "outputs": [
        {
          "internalType": "uint256",
          "name": "",
          "type": "uint256"
        }
      ],
      "stateMutability": "view",
      "type": "function"
    },
    {
      "inputs": [
        {
          "internalType": "uint256",
          "name": "newCap",
          "type": "uint256"
        }
      ],
      "name": "setCap",
      "outputs": [],
      "stateMutability": "nonpayable",
      "type": "function"
    },
    {
      "inputs": [
        {
          "internalType": "address",
          "name": "newFeeRecipient",
          "type": "address"
        }
      ],
      "name": "setFeeRecipient",
      "outputs": [],
      "stateMutability": "nonpayable",
      "type": "function"
    },
    {
      "inputs": [
        {
          "internalType": "uint256",
          "name": "newManagementFee",
          "type": "uint256"
        }
      ],
      "name": "setManagementFee",
      "outputs": [],
      "stateMutability": "nonpayable",
      "type": "function"
    },
    {
      "inputs": [
        {
          "internalType": "address",
          "name": "newKeeper",
          "type": "address"
        }
      ],
      "name": "setNewKeeper",
      "outputs": [],
      "stateMutability": "nonpayable",
      "type": "function"
    },
    {
      "inputs": [
        {
          "internalType": "uint256",
          "name": "newPerformanceFee",
          "type": "uint256"
        }
      ],
      "name": "setPerformanceFee",
      "outputs": [],
      "stateMutability": "nonpayable",
      "type": "function"
    },
    {
      "inputs": [
        {
          "internalType": "address",
          "name": "account",
          "type": "address"
        }
      ],
      "name": "shareBalances",
      "outputs": [
        {
          "internalType": "uint256",
          "name": "heldByAccount",
          "type": "uint256"
        },
        {
          "internalType": "uint256",
          "name": "heldByVault",
          "type": "uint256"
        }
      ],
      "stateMutability": "view",
      "type": "function"
    },
    {
      "inputs": [
        {
          "internalType": "address",
          "name": "account",
          "type": "address"
        }
      ],
      "name": "shares",
      "outputs": [
        {
          "internalType": "uint256",
          "name": "",
          "type": "uint256"
        }
      ],
      "stateMutability": "view",
      "type": "function"
    },
    {
      "inputs": [],
      "name": "symbol",
      "outputs": [
        {
          "internalType": "string",
          "name": "",
          "type": "string"
        }
      ],
      "stateMutability": "view",
      "type": "function"
    },
    {
      "inputs": [],
      "name": "totalBalance",
      "outputs": [
        {
          "internalType": "uint256",
          "name": "",
          "type": "uint256"
        }
      ],
      "stateMutability": "view",
      "type": "function"
    },
    {
      "inputs": [],
      "name": "totalPending",
      "outputs": [
        {
          "internalType": "uint256",
          "name": "",
          "type": "uint256"
        }
      ],
      "stateMutability": "view",
      "type": "function"
    },
    {
      "inputs": [],
      "name": "totalSupply",
      "outputs": [
        {
          "internalType": "uint256",
          "name": "",
          "type": "uint256"
        }
      ],
      "stateMutability": "view",
      "type": "function"
    },
    {
      "inputs": [
        {
          "internalType": "address",
          "name": "recipient",
          "type": "address"
        },
        {
          "internalType": "uint256",
          "name": "amount",
          "type": "uint256"
        }
      ],
      "name": "transfer",
      "outputs": [
        {
          "internalType": "bool",
          "name": "",
          "type": "bool"
        }
      ],
      "stateMutability": "nonpayable",
      "type": "function"
    },
    {
      "inputs": [
        {
          "internalType": "address",
          "name": "sender",
          "type": "address"
        },
        {
          "internalType": "address",
          "name": "recipient",
          "type": "address"
        },
        {
          "internalType": "uint256",
          "name": "amount",
          "type": "uint256"
        }
      ],
      "name": "transferFrom",
      "outputs": [
        {
          "internalType": "bool",
          "name": "",
          "type": "bool"
        }
      ],
      "stateMutability": "nonpayable",
      "type": "function"
    },
    {
      "inputs": [
        {
          "internalType": "address",
          "name": "newOwner",
          "type": "address"
        }
      ],
      "name": "transferOwnership",
      "outputs": [],
      "stateMutability": "nonpayable",
      "type": "function"
    },
    {
      "inputs": [],
      "name": "vaultParams",
      "outputs": [
        {
          "internalType": "bool",
          "name": "isPut",
          "type": "bool"
        },
        {
          "internalType": "uint8",
          "name": "decimals",
          "type": "uint8"
        },
        {
          "internalType": "address",
          "name": "asset",
          "type": "address"
        },
        {
          "internalType": "address",
          "name": "underlying",
          "type": "address"
        },
        {
          "internalType": "uint56",
          "name": "minimumSupply",
          "type": "uint56"
        },
        {
          "internalType": "uint104",
          "name": "cap",
          "type": "uint104"
        }
      ],
      "stateMutability": "view",
      "type": "function"
    },
    {
      "inputs": [],
      "name": "vaultState",
      "outputs": [
        {
          "internalType": "uint16",
          "name": "round",
          "type": "uint16"
        },
        {
          "internalType": "uint104",
          "name": "lockedAmount",
          "type": "uint104"
        },
        {
          "internalType": "uint104",
          "name": "lastLockedAmount",
          "type": "uint104"
        },
        {
          "internalType": "uint128",
          "name": "totalPending",
          "type": "uint128"
        },
        {
          "internalType": "uint128",
          "name": "queuedWithdrawShares",
          "type": "uint128"
        }
      ],
      "stateMutability": "view",
      "type": "function"
    },
    {
      "inputs": [
        {
          "internalType": "uint256",
          "name": "amount",
          "type": "uint256"
        }
      ],
      "name": "withdrawInstantly",
      "outputs": [],
      "stateMutability": "nonpayable",
      "type": "function"
    },
    {
      "inputs": [
        {
          "internalType": "address",
          "name": "",
          "type": "address"
        }
      ],
      "name": "withdrawals",
      "outputs": [
        {
          "internalType": "uint16",
          "name": "round",
          "type": "uint16"
        },
        {
          "internalType": "uint128",
          "name": "shares",
          "type": "uint128"
        }
      ],
      "stateMutability": "view",
      "type": "function"
    }
  ],
  "bytecode": "0x60a06040523480156200001157600080fd5b5060405162002d0238038062002d0283398101604081905262000034916200008e565b6001600160a01b038116620000785760405162461bcd60e51b8152602060048201526006602482015265042beeecae8d60d31b604482015260640160405180910390fd5b60601b6001600160601b031916608052620000be565b600060208284031215620000a0578081fd5b81516001600160a01b0381168114620000b7578182fd5b9392505050565b60805160601c612c17620000eb6000396000818161070c01528181611bf80152611c350152612c176000f3fe608060405234801561001057600080fd5b506004361061028a5760003560e01c8063877887821161015c578063ad5c4648116100ce578063dd62ed3e11610087578063dd62ed3e14610781578063e74b981b146107ba578063f2fde38b146107cd578063f656ba51146107e0578063f756fa2114610808578063fe56e2321461081057600080fd5b8063ad5c464814610707578063ad7a672f1461072e578063b6b55f2514610735578063ce7c2ac214610748578063d164cc151461075b578063db006a751461076e57600080fd5b80639fcc2d75116101205780639fcc2d75146105d0578063a083ff171461066f578063a457c2d7146106c5578063a6f7f5d6146106d8578063a9059cbb146106e1578063aced1661146106f457600080fd5b806387788782146105935780638da5cb5b1461059c57806395d89b41146105ad57806399530b06146105b55780639be43daa146105bd57600080fd5b80633f90916a1161020057806370a08231116101b957806370a08231146104d8578063715018a6146105015780637a9262a2146105095780637e108d5214610560578063864366e21461038e57806387153eb11461057357600080fd5b80633f90916a146103f7578063469048401461040857806347786d37146104335780636719b2ee146104465780636f31ab34146104bd57806370897b23146104c557600080fd5b80632775d01c116102525780632775d01c1461037b578063313ce56714610390578063355274ea146103ad57806336efd16f146103be57806339509351146103d15780633f23bb73146103e457600080fd5b806306fdde031461028f578063095ea7b3146102ad57806318160ddd146102d057806323b872dd146102e25780632728f333146102f5575b600080fd5b610297610823565b6040516102a49190612930565b60405180910390f35b6102c06102bb366004612891565b6108b5565b60405190151581526020016102a4565b6099545b6040519081526020016102a4565b6102c06102f0366004612856565b6108cc565b60cf5460d0546103369161ffff8116916001600160681b03620100008304811692600160781b900416906001600160801b0380821691600160801b90041685565b6040805161ffff90961686526001600160681b03948516602087015293909216928401929092526001600160801b03918216606084015216608082015260a0016102a4565b61038e6103893660046128da565b61097d565b005b60cc54610100900460ff1660405160ff90911681526020016102a4565b60ce546001600160681b03166102d4565b61038e6103cc3660046128f2565b610b26565b6102c06103df366004612891565b610bae565b6102d46103f236600461280a565b610bea565b60d0546001600160801b03166102d4565b60d35461041b906001600160a01b031681565b6040516001600160a01b0390911681526020016102a4565b61038e6104413660046128da565b610c37565b61048c61045436600461280a565b60c96020526000908152604090205461ffff8116906201000081046001600160681b031690600160781b90046001600160801b031683565b6040805161ffff90941684526001600160681b0390921660208401526001600160801b0316908201526060016102a4565b61038e610ccc565b61038e6104d33660046128da565b610d09565b6102d46104e636600461280a565b6001600160a01b031660009081526097602052604090205490565b61038e610dd0565b61053e61051736600461280a565b60cb6020526000908152604090205461ffff8116906201000090046001600160801b031682565b6040805161ffff90931683526001600160801b039091166020830152016102a4565b61038e61056e3660046128da565b610e06565b6102d46105813660046128da565b60ca6020526000908152604090205481565b6102d460d55481565b6065546001600160a01b031661041b565b610297611041565b6102d4611050565b61038e6105cb3660046128da565b611084565b60cc5460cd5460ce5461061f9260ff808216936101008304909116926001600160a01b036201000090930483169282169166ffffffffffffff600160a01b90910416906001600160681b031686565b60408051961515875260ff90951660208701526001600160a01b03938416948601949094529116606084015266ffffffffffffff1660808301526001600160681b031660a082015260c0016102a4565b60d15460d254610699916001600160a01b039081169190811690600160a01b900463ffffffff1683565b604080516001600160a01b03948516815293909216602084015263ffffffff16908201526060016102a4565b6102c06106d3366004612891565b6111b8565b6102d460d65481565b6102c06106ef366004612891565b611251565b60d45461041b906001600160a01b031681565b61041b7f000000000000000000000000000000000000000000000000000000000000000081565b60006102d4565b61038e6107433660046128da565b61125e565b6102d461075636600461280a565b6112d2565b61038e61076936600461280a565b6112ef565b61038e61077c3660046128da565b61137e565b6102d461078f366004612824565b6001600160a01b03918216600090815260986020908152604080832093909416825291909152205490565b61038e6107c836600461280a565b6113eb565b61038e6107db36600461280a565b6114de565b6107f36107ee36600461280a565b611579565b604080519283526020830191909152016102a4565b61038e61165c565b61038e61081e3660046128da565b611841565b6060609a805461083290612b75565b80601f016020809104026020016040519081016040528092919081815260200182805461085e90612b75565b80156108ab5780601f10610880576101008083540402835291602001916108ab565b820191906000526020600020905b81548152906001019060200180831161088e57829003601f168201915b5050505050905090565b60006108c23384846118e1565b5060015b92915050565b60006108d9848484611a05565b6001600160a01b0384166000908152609860209081526040808320338452909152902054828110156109635760405162461bcd60e51b815260206004820152602860248201527f45524332303a207472616e7366657220616d6f756e74206578636565647320616044820152676c6c6f77616e636560c01b60648201526084015b60405180910390fd5b61097085338584036118e1565b60019150505b9392505050565b600260015414156109a05760405162461bcd60e51b815260040161095a906129b9565b600260015533600090815260c96020526040902060cf5461ffff16826109d85760405162461bcd60e51b815260040161095a90612998565b815461ffff168114610a1c5760405162461bcd60e51b815260206004820152600d60248201526c125b9d985b1a59081c9bdd5b99609a1b604482015260640161095a565b81546201000090046001600160681b031683811015610a6d5760405162461bcd60e51b815260206004820152600d60248201526c115e18d9595908185b5bdd5b9d609a1b604482015260640161095a565b610a778185611bd5565b83546001600160681b039190911662010000026effffffffffffffffffffffffff00001990911617835560d054610ab7906001600160801b031685611bd5565b60d080546001600160801b0319166001600160801b0392909216919091179055604080518581526020810184905233917fab2daf3c146ca6416cbccd2a86ed2ba995e171ef6319df14a38aef01403a9c96910160405180910390a2610b1c3385611be1565b5050600180555050565b60026001541415610b495760405162461bcd60e51b815260040161095a906129b9565b600260015581610b6b5760405162461bcd60e51b815260040161095a90612998565b6001600160a01b038116610b7e57600080fd5b610b888282611d47565b60cc54610ba6906201000090046001600160a01b0316333085611fd1565b505060018055565b3360008181526098602090815260408083206001600160a01b038716845290915281205490916108c2918590610be59086906129f0565b6118e1565b60cc5460009060ff6101009091041681610c1a610c0660995490565b600060d0546001600160801b03168561203c565b9050610c2f610c28856112d2565b828461207c565b949350505050565b6065546001600160a01b03163314610c615760405162461bcd60e51b815260040161095a90612963565b60008111610c9b5760405162461bcd60e51b81526020600482015260076024820152660216e65774361760cc1b604482015260640161095a565b610ca4816120de565b60ce80546cffffffffffffffffffffffffff19166001600160681b0392909216919091179055565b60026001541415610cef5760405162461bcd60e51b815260040161095a906129b9565b6002600181905550610d0360006001612128565b60018055565b6065546001600160a01b03163314610d335760405162461bcd60e51b815260040161095a90612963565b610d41620f42406064612b13565b8110610d8f5760405162461bcd60e51b815260206004820152601760248201527f496e76616c696420706572666f726d616e636520666565000000000000000000604482015260640161095a565b60d55460408051918252602082018390527f24867dfb6fcb9970a07be21024956524abe7a1837faa903ff0e99aaa40cf893e910160405180910390a160d555565b6065546001600160a01b03163314610dfa5760405162461bcd60e51b815260040161095a90612963565b610e0460006122ff565b565b60026001541415610e295760405162461bcd60e51b815260040161095a906129b9565b600260015580610e685760405162461bcd60e51b815260206004820152600a602482015269216e756d53686172657360b01b604482015260640161095a565b33600090815260c960205260409020546201000090046001600160681b0316151580610eb2575033600090815260c96020526040902054600160781b90046001600160801b031615155b15610ec357610ec360006001612128565b60cf5433600081815260cb60209081526040918290208054835187815261ffff96871693810184905292959194911685149290917f0c53c82ad07e2d592d88ece3b066777dd60f1118e2a081b380efc4358f0d9e2a910160405180910390a281546201000090046001600160801b031660008215610f4c57610f458287612351565b9050610faf565b8115610f8e5760405162461bcd60e51b81526020600482015260116024820152704578697374696e6720776974686472617760781b604482015260640161095a565b5033600090815260cb60205260409020805461ffff191661ffff8616179055845b610fb88161235d565b33600090815260cb6020526040812080546001600160801b03808516620100000262010000600160901b03199092169190911790915560d05461100491600160801b9091041688612351565b905061100f8161235d565b60d080546001600160801b03808416600160801b029116179055611034333089611a05565b5050600180555050505050565b6060609b805461083290612b75565b600061107f61105e60995490565b600060d05460cc546001600160801b0390911690610100900460ff1661203c565b905090565b600260015414156110a75760405162461bcd60e51b815260040161095a906129b9565b6002600155806110e65760405162461bcd60e51b815260206004820152600a602482015269216e756d526f756e647360b01b604482015260640161095a565b60cf5461ffff1660005b828110156111af57600061110482846129f0565b9050828110156111415760405162461bcd60e51b81526020600482015260086024820152674f766572666c6f7760c01b604482015260640161095a565b600081815260ca60205260409020541561118b5760405162461bcd60e51b815260206004820152600b60248201526a125b9a5d1a585b1a5e995960aa1b604482015260640161095a565b600090815260ca6020526040902060019055806111a781612bb0565b9150506110f0565b50506001805550565b3360009081526098602090815260408083206001600160a01b03861684529091528120548281101561123a5760405162461bcd60e51b815260206004820152602560248201527f45524332303a2064656372656173656420616c6c6f77616e63652062656c6f77604482015264207a65726f60d81b606482015260840161095a565b61124733858584036118e1565b5060019392505050565b60006108c2338484611a05565b600260015414156112815760405162461bcd60e51b815260040161095a906129b9565b6002600155806112a35760405162461bcd60e51b815260040161095a90612998565b6112ad8133611d47565b60cc546112cb906201000090046001600160a01b0316333084611fd1565b5060018055565b60008060006112e084611579565b9092509050610c2f8282612351565b6065546001600160a01b031633146113195760405162461bcd60e51b815260040161095a90612963565b6001600160a01b03811661135c5760405162461bcd60e51b815260206004820152600a60248201526910b732bba5b2b2b832b960b11b604482015260640161095a565b60d480546001600160a01b0319166001600160a01b0392909216919091179055565b600260015414156113a15760405162461bcd60e51b815260040161095a906129b9565b6002600155806113e05760405162461bcd60e51b815260206004820152600a602482015269216e756d53686172657360b01b604482015260640161095a565b6112cb816000612128565b6065546001600160a01b031633146114155760405162461bcd60e51b815260040161095a90612963565b6001600160a01b03811661145e5760405162461bcd60e51b815260206004820152601060248201526f085b995dd19959549958da5c1a595b9d60821b604482015260640161095a565b60d3546001600160a01b03828116911614156114bc5760405162461bcd60e51b815260206004820152601860248201527f4d757374206265206e657720666565526563697069656e740000000000000000604482015260640161095a565b60d380546001600160a01b0319166001600160a01b0392909216919091179055565b6065546001600160a01b031633146115085760405162461bcd60e51b815260040161095a90612963565b6001600160a01b03811661156d5760405162461bcd60e51b815260206004820152602660248201527f4f776e61626c653a206e6577206f776e657220697320746865207a65726f206160448201526564647265737360d01b606482015260840161095a565b611576816122ff565b50565b6001600160a01b038116600090815260c9602090815260408083208151606081018352905461ffff81168083526201000082046001600160681b031694830194909452600160781b90046001600160801b0316918101919091528291600111156115fb575050506001600160a01b031660009081526097602052604081205491565b60cf54815161ffff908116600090815260ca602052604081205460cc54919361163193869391169190610100900460ff166123a7565b9050611652856001600160a01b031660009081526097602052604090205490565b9590945092505050565b6002600154141561167f5760405162461bcd60e51b815260040161095a906129b9565b600260015533600090815260cb6020526040902080546001600160801b03620100008204169061ffff16816116e65760405162461bcd60e51b815260206004820152600d60248201526c139bdd081a5b9a5d1a585d1959609a1b604482015260640161095a565b60cf5461ffff16811061172e5760405162461bcd60e51b815260206004820152601060248201526f149bdd5b99081b9bdd0818db1bdcd95960821b604482015260640161095a565b33600090815260cb60205260409020805462010000600160901b031916905560d05461176a90600160801b90046001600160801b031683611bd5565b60d080546001600160801b03928316600160801b029216919091179055600081815260ca602052604081205460cc546117ad91859160ff6101009091041661207c565b604080518281526020810186905291925033917ff279e6a1f5e320cca91135676d9cb6e44ca8a08c0b88342bcdb1144f6511b568910160405180910390a26117f53084612418565b600081116118375760405162461bcd60e51b815260206004820152600f60248201526e085dda5d1a191c985dd05b5bdd5b9d608a1b604482015260640161095a565b610b1c3382611be1565b6065546001600160a01b0316331461186b5760405162461bcd60e51b815260040161095a90612963565b611879620f42406064612b13565b81106118c05760405162461bcd60e51b8152602060048201526016602482015275496e76616c6964206d616e6167656d656e742066656560501b604482015260640161095a565b6118db63031ba3096118d583620f4240612566565b90612572565b60d65550565b6001600160a01b0383166119435760405162461bcd60e51b8152602060048201526024808201527f45524332303a20617070726f76652066726f6d20746865207a65726f206164646044820152637265737360e01b606482015260840161095a565b6001600160a01b0382166119a45760405162461bcd60e51b815260206004820152602260248201527f45524332303a20617070726f766520746f20746865207a65726f206164647265604482015261737360f01b606482015260840161095a565b6001600160a01b0383811660008181526098602090815260408083209487168084529482529182902085905590518481527f8c5be1e5ebec7d5bd14f71427d1e84f3dd0314c0f7b2291e5b200ac8c7c3b925910160405180910390a3505050565b6001600160a01b038316611a695760405162461bcd60e51b815260206004820152602560248201527f45524332303a207472616e736665722066726f6d20746865207a65726f206164604482015264647265737360d81b606482015260840161095a565b6001600160a01b038216611acb5760405162461bcd60e51b815260206004820152602360248201527f45524332303a207472616e7366657220746f20746865207a65726f206164647260448201526265737360e81b606482015260840161095a565b6001600160a01b03831660009081526097602052604090205481811015611b435760405162461bcd60e51b815260206004820152602660248201527f45524332303a207472616e7366657220616d6f756e7420657863656564732062604482015265616c616e636560d01b606482015260840161095a565b6001600160a01b03808516600090815260976020526040808220858503905591851681529081208054849290611b7a9084906129f0565b92505081905550826001600160a01b0316846001600160a01b03167fddf252ad1be2c89b69c2b068fc378daa952ba7f163c4a11628f55a4df523b3ef84604051611bc691815260200190565b60405180910390a35b50505050565b60006109768284612b32565b60cc546001600160a01b03620100009091048116907f000000000000000000000000000000000000000000000000000000000000000016811415611d2e57604051632e1a7d4d60e01b8152600481018390527f00000000000000000000000000000000000000000000000000000000000000006001600160a01b031690632e1a7d4d90602401600060405180830381600087803b158015611c8157600080fd5b505af1158015611c95573d6000803e3d6000fd5b505050506000836001600160a01b03168360405160006040518083038185875af1925050503d8060008114611ce6576040519150601f19603f3d011682016040523d82523d6000602084013e611ceb565b606091505b5050905080611bcf5760405162461bcd60e51b815260206004820152600f60248201526e151c985b9cd9995c8819985a5b1959608a1b604482015260640161095a565b611d426001600160a01b038216848461257e565b505050565b60cf5461ffff166000611d5a8185612351565b60ce549091506001600160681b0316811115611da55760405162461bcd60e51b815260206004820152600a6024820152690457863656564206361760b41b604482015260640161095a565b60cd54600160a01b900466ffffffffffffff16811015611dfe5760405162461bcd60e51b8152602060048201526014602482015273496e73756666696369656e742062616c616e636560601b604482015260640161095a565b60408051858152602081018490526001600160a01b038516917f90890809c654f11d6e72a28fa60149770a0d11ec6c92319d6ceb2bb0a4ea1a15910160405180910390a26001600160a01b038316600090815260c9602090815260408083208151606081018352905461ffff81168083526201000082046001600160681b031683860152600160781b9091046001600160801b031682840152845260ca90925282205460cc54919291611ebd918491879190610100900460ff166123a7565b8251909150869061ffff16851415611eee576020830151600090611eea906001600160681b031689612351565b9150505b611ef7816120de565b6040805160608101825261ffff80881682526001600160681b0380851660208085019182526001600160801b038089168688019081526001600160a01b038e16600090815260c990935296822095518654935197518216600160781b02600160781b600160f81b03199890951662010000026effffffffffffffffffffffffffffff1990941695169490941791909117949094161790915560d054611f9d911689612351565b9050611fa88161235d565b60d080546001600160801b0319166001600160801b039290921691909117905550505050505050565b6040516001600160a01b0380851660248301528316604482015260648101829052611bcf9085906323b872dd60e01b906084015b60408051601f198184030181529190526020810180516001600160e01b03166001600160e01b0319909316929092179091526125ae565b60008061204a83600a612a6b565b90506000861161205a5780612072565b612072866118d561206b8888611bd5565b8490612566565b9695505050505050565b6000600183116120c65760405162461bcd60e51b8152602060048201526015602482015274496e76616c6964206173736574506572536861726560581b604482015260640161095a565b610c2f6120d483600a612a6b565b6118d58686612566565b6001600160681b038111156115765760405162461bcd60e51b815260206004820152601060248201526f13dd995c999b1bddc81d5a5b9d0c4c0d60821b604482015260640161095a565b33600090815260c9602090815260408083208151606081018352905461ffff8082168084526201000083046001600160681b031684870152600160781b9092046001600160801b03168385015260cf5491865260ca9094529184205460cc54919492909316926121a39185918591610100900460ff166123a7565b9050836121b057846121b2565b805b9450846121c0575050505050565b808511156122045760405162461bcd60e51b81526020600482015260116024820152704578636565647320617661696c61626c6560781b604482015260640161095a565b825161ffff16821161221a57826020015161221d565b60005b33600090815260c96020526040902080546001600160681b039290921662010000026effffffffffffffffffffffffff0000199092169190911790556122628561235d565b61226c8186611bd5565b33600081815260c960205260409081902080546001600160801b0394909416600160781b02600160781b600160f81b0319909416939093179092558451915190917fe5b754fb1abb7f01b499791d0b820ae3b6af3424ac1c59768edb53f4ec31a929916122e59189825261ffff16602082015260400190565b60405180910390a26122f8303387611a05565b5050505050565b606580546001600160a01b038381166001600160a01b0319831681179093556040519116919082907f8be0079c531659141344cd1fd0a4f28419497f9722a3daafe3b4186f6b6457e090600090a35050565b600061097682846129f0565b6001600160801b038111156115765760405162461bcd60e51b815260206004820152601060248201526f09eeccae4ccd8deee40ead2dce86264760831b604482015260640161095a565b835160009061ffff16158015906123c25750845161ffff1684115b156124045760006123e186602001516001600160681b03168585612680565b60408701519091506123fc906001600160801b031682612351565b915050610c2f565b50505050604001516001600160801b031690565b6001600160a01b0382166124785760405162461bcd60e51b815260206004820152602160248201527f45524332303a206275726e2066726f6d20746865207a65726f206164647265736044820152607360f81b606482015260840161095a565b6001600160a01b038216600090815260976020526040902054818110156124ec5760405162461bcd60e51b815260206004820152602260248201527f45524332303a206275726e20616d6f756e7420657863656564732062616c616e604482015261636560f01b606482015260840161095a565b6001600160a01b038316600090815260976020526040812083830390556099805484929061251b908490612b32565b90915550506040518281526000906001600160a01b038516907fddf252ad1be2c89b69c2b068fc378daa952ba7f163c4a11628f55a4df523b3ef9060200160405180910390a3505050565b60006109768284612b13565b60006109768284612a08565b6040516001600160a01b038316602482015260448101829052611d4290849063a9059cbb60e01b90606401612005565b6000612603826040518060400160405280602081526020017f5361666545524332303a206c6f772d6c6576656c2063616c6c206661696c6564815250856001600160a01b03166126e39092919063ffffffff16565b805190915015611d42578080602001905181019061262191906128ba565b611d425760405162461bcd60e51b815260206004820152602a60248201527f5361666545524332303a204552433230206f7065726174696f6e20646964206e6044820152691bdd081cdd58d8d9595960b21b606482015260840161095a565b6000600183116126ca5760405162461bcd60e51b8152602060048201526015602482015274496e76616c6964206173736574506572536861726560581b604482015260640161095a565b610c2f836118d56126dc85600a612a6b565b8790612566565b6060610c2f848460008585843b61273c5760405162461bcd60e51b815260206004820152601d60248201527f416464726573733a2063616c6c20746f206e6f6e2d636f6e7472616374000000604482015260640161095a565b600080866001600160a01b031685876040516127589190612914565b60006040518083038185875af1925050503d8060008114612795576040519150601f19603f3d011682016040523d82523d6000602084013e61279a565b606091505b50915091506127aa8282866127b5565b979650505050505050565b606083156127c4575081610976565b8251156127d45782518084602001fd5b8160405162461bcd60e51b815260040161095a9190612930565b80356001600160a01b038116811461280557600080fd5b919050565b60006020828403121561281b578081fd5b610976826127ee565b60008060408385031215612836578081fd5b61283f836127ee565b915061284d602084016127ee565b90509250929050565b60008060006060848603121561286a578081fd5b612873846127ee565b9250612881602085016127ee565b9150604084013590509250925092565b600080604083850312156128a3578182fd5b6128ac836127ee565b946020939093013593505050565b6000602082840312156128cb578081fd5b81518015158114610976578182fd5b6000602082840312156128eb578081fd5b5035919050565b60008060408385031215612904578182fd5b8235915061284d602084016127ee565b60008251612926818460208701612b49565b9190910192915050565b602081526000825180602084015261294f816040850160208701612b49565b601f01601f19169190910160400192915050565b6020808252818101527f4f776e61626c653a2063616c6c6572206973206e6f7420746865206f776e6572604082015260600190565b60208082526007908201526608585b5bdd5b9d60ca1b604082015260600190565b6020808252601f908201527f5265656e7472616e637947756172643a207265656e7472616e742063616c6c00604082015260600190565b60008219821115612a0357612a03612bcb565b500190565b600082612a2357634e487b7160e01b81526012600452602481fd5b500490565b600181815b80851115612a63578160001904821115612a4957612a49612bcb565b80851615612a5657918102915b93841c9390800290612a2d565b509250929050565b60006109768383600082612a81575060016108c6565b81612a8e575060006108c6565b8160018114612aa45760028114612aae57612aca565b60019150506108c6565b60ff841115612abf57612abf612bcb565b50506001821b6108c6565b5060208310610133831016604e8410600b8410161715612aed575081810a6108c6565b612af78383612a28565b8060001904821115612b0b57612b0b612bcb565b029392505050565b6000816000190483118215151615612b2d57612b2d612bcb565b500290565b600082821015612b4457612b44612bcb565b500390565b60005b83811015612b64578181015183820152602001612b4c565b83811115611bcf5750506000910152565b600181811c90821680612b8957607f821691505b60208210811415612baa57634e487b7160e01b600052602260045260246000fd5b50919050565b6000600019821415612bc457612bc4612bcb565b5060010190565b634e487b7160e01b600052601160045260246000fdfea26469706673582212201cf2b80a5f26403463c5ebea411877096499d5b4ff55eea4dfdae24fe41f2d9e64736f6c63430008040033",
  "linkReferences": {},
  "deployedLinkReferences": {}
}