{
  "_format": "hh-sol-artifact-1",
  "contractName": "RibbonVault",
  "sourceName": "contracts/V2/base/RibbonVault.sol",
  "abi": [
    {
      "inputs": [
        {
          "internalType": "address",
          "name": "_weth",
          "type": "address"
        },
        {
          "internalType": "address",
          "name": "_usdc",
          "type": "address"
        },
        {
          "internalType": "address",
          "name": "_gammaController",
          "type": "address"
        },
        {
          "internalType": "address",
          "name": "_marginPool",
          "type": "address"
        },
        {
          "internalType": "address",
          "name": "_gnosisEasyAuction",
          "type": "address"
        }
      ],
      "stateMutability": "nonpayable",
      "type": "constructor"
    },
    {
      "anonymous": false,
      "inputs": [
        {
          "indexed": true,
          "internalType": "address",
          "name": "owner",
          "type": "address"
        },
        {
          "indexed": true,
          "internalType": "address",
          "name": "spender",
          "type": "address"
        },
        {
          "indexed": false,
          "internalType": "uint256",
          "name": "value",
          "type": "uint256"
        }
      ],
      "name": "Approval",
      "type": "event"
    },
    {
      "anonymous": false,
      "inputs": [
        {
          "indexed": false,
          "internalType": "uint256",
          "name": "oldCap",
          "type": "uint256"
        },
        {
          "indexed": false,
          "internalType": "uint256",
          "name": "newCap",
          "type": "uint256"
        },
        {
          "indexed": false,
          "internalType": "address",
          "name": "manager",
          "type": "address"
        }
      ],
      "name": "CapSet",
      "type": "event"
    },
    {
      "anonymous": false,
      "inputs": [
        {
          "indexed": false,
          "internalType": "uint256",
          "name": "performanceFee",
          "type": "uint256"
        },
        {
          "indexed": false,
          "internalType": "uint256",
          "name": "vaultFee",
          "type": "uint256"
        },
        {
          "indexed": false,
          "internalType": "uint256",
          "name": "round",
          "type": "uint256"
        },
        {
          "indexed": true,
          "internalType": "address",
          "name": "feeRecipient",
          "type": "address"
        }
      ],
      "name": "CollectVaultFees",
      "type": "event"
    },
    {
      "anonymous": false,
      "inputs": [
        {
          "indexed": true,
          "internalType": "address",
          "name": "account",
          "type": "address"
        },
        {
          "indexed": false,
          "internalType": "uint256",
          "name": "amount",
          "type": "uint256"
        },
        {
          "indexed": false,
          "internalType": "uint256",
          "name": "round",
          "type": "uint256"
        }
      ],
      "name": "Deposit",
      "type": "event"
    },
    {
      "anonymous": false,
      "inputs": [
        {
          "indexed": true,
          "internalType": "address",
          "name": "account",
          "type": "address"
        },
        {
          "indexed": false,
          "internalType": "uint256",
          "name": "shares",
          "type": "uint256"
        },
        {
          "indexed": false,
          "internalType": "uint256",
          "name": "round",
          "type": "uint256"
        }
      ],
      "name": "InitiateWithdraw",
      "type": "event"
    },
    {
      "anonymous": false,
      "inputs": [
        {
          "indexed": false,
          "internalType": "uint256",
          "name": "managementFee",
          "type": "uint256"
        },
        {
          "indexed": false,
          "internalType": "uint256",
          "name": "newManagementFee",
          "type": "uint256"
        }
      ],
      "name": "ManagementFeeSet",
      "type": "event"
    },
    {
      "anonymous": false,
      "inputs": [
        {
          "indexed": true,
          "internalType": "address",
          "name": "previousOwner",
          "type": "address"
        },
        {
          "indexed": true,
          "internalType": "address",
          "name": "newOwner",
          "type": "address"
        }
      ],
      "name": "OwnershipTransferred",
      "type": "event"
    },
    {
      "anonymous": false,
      "inputs": [
        {
          "indexed": false,
          "internalType": "uint256",
          "name": "performanceFee",
          "type": "uint256"
        },
        {
          "indexed": false,
          "internalType": "uint256",
          "name": "newPerformanceFee",
          "type": "uint256"
        }
      ],
      "name": "PerformanceFeeSet",
      "type": "event"
    },
    {
      "anonymous": false,
      "inputs": [
        {
          "indexed": true,
          "internalType": "address",
          "name": "account",
          "type": "address"
        },
        {
          "indexed": false,
          "internalType": "uint256",
          "name": "share",
          "type": "uint256"
        },
        {
          "indexed": false,
          "internalType": "uint256",
          "name": "round",
          "type": "uint256"
        }
      ],
      "name": "Redeem",
      "type": "event"
    },
    {
      "anonymous": false,
      "inputs": [
        {
          "indexed": true,
          "internalType": "address",
          "name": "from",
          "type": "address"
        },
        {
          "indexed": true,
          "internalType": "address",
          "name": "to",
          "type": "address"
        },
        {
          "indexed": false,
          "internalType": "uint256",
          "name": "value",
          "type": "uint256"
        }
      ],
      "name": "Transfer",
      "type": "event"
    },
    {
      "anonymous": false,
      "inputs": [
        {
          "indexed": true,
          "internalType": "address",
          "name": "account",
          "type": "address"
        },
        {
          "indexed": false,
          "internalType": "uint256",
          "name": "amount",
          "type": "uint256"
        },
        {
          "indexed": false,
          "internalType": "uint256",
          "name": "shares",
          "type": "uint256"
        }
      ],
      "name": "Withdraw",
      "type": "event"
    },
    {
      "inputs": [],
      "name": "DELAY",
      "outputs": [
        {
          "internalType": "uint256",
          "name": "",
          "type": "uint256"
        }
      ],
      "stateMutability": "view",
      "type": "function"
    },
    {
      "inputs": [],
      "name": "GAMMA_CONTROLLER",
      "outputs": [
        {
          "internalType": "address",
          "name": "",
          "type": "address"
        }
      ],
      "stateMutability": "view",
      "type": "function"
    },
    {
      "inputs": [],
      "name": "GNOSIS_EASY_AUCTION",
      "outputs": [
        {
          "internalType": "address",
          "name": "",
          "type": "address"
        }
      ],
      "stateMutability": "view",
      "type": "function"
    },
    {
      "inputs": [],
      "name": "MARGIN_POOL",
      "outputs": [
        {
          "internalType": "address",
          "name": "",
          "type": "address"
        }
      ],
      "stateMutability": "view",
      "type": "function"
    },
    {
      "inputs": [],
      "name": "PERIOD",
      "outputs": [
        {
          "internalType": "uint256",
          "name": "",
          "type": "uint256"
        }
      ],
      "stateMutability": "view",
      "type": "function"
    },
    {
      "inputs": [],
      "name": "USDC",
      "outputs": [
        {
          "internalType": "address",
          "name": "",
          "type": "address"
        }
      ],
      "stateMutability": "view",
      "type": "function"
    },
    {
      "inputs": [],
      "name": "WETH",
      "outputs": [
        {
          "internalType": "address",
          "name": "",
          "type": "address"
        }
      ],
      "stateMutability": "view",
      "type": "function"
    },
    {
      "inputs": [
        {
          "internalType": "address",
          "name": "account",
          "type": "address"
        }
      ],
      "name": "accountVaultBalance",
      "outputs": [
        {
          "internalType": "uint256",
          "name": "",
          "type": "uint256"
        }
      ],
      "stateMutability": "view",
      "type": "function"
    },
    {
      "inputs": [
        {
          "internalType": "address",
          "name": "owner",
          "type": "address"
        },
        {
          "internalType": "address",
          "name": "spender",
          "type": "address"
        }
      ],
      "name": "allowance",
      "outputs": [
        {
          "internalType": "uint256",
          "name": "",
          "type": "uint256"
        }
      ],
      "stateMutability": "view",
      "type": "function"
    },
    {
      "inputs": [
        {
          "internalType": "address",
          "name": "spender",
          "type": "address"
        },
        {
          "internalType": "uint256",
          "name": "amount",
          "type": "uint256"
        }
      ],
      "name": "approve",
      "outputs": [
        {
          "internalType": "bool",
          "name": "",
          "type": "bool"
        }
      ],
      "stateMutability": "nonpayable",
      "type": "function"
    },
    {
      "inputs": [
        {
          "internalType": "address",
          "name": "account",
          "type": "address"
        }
      ],
      "name": "balanceOf",
      "outputs": [
        {
          "internalType": "uint256",
          "name": "",
          "type": "uint256"
        }
      ],
      "stateMutability": "view",
      "type": "function"
    },
    {
      "inputs": [],
      "name": "cap",
      "outputs": [
        {
          "internalType": "uint256",
          "name": "",
          "type": "uint256"
        }
      ],
      "stateMutability": "view",
      "type": "function"
    },
    {
      "inputs": [],
      "name": "completeWithdraw",
      "outputs": [],
      "stateMutability": "nonpayable",
      "type": "function"
    },
    {
      "inputs": [],
      "name": "currentOption",
      "outputs": [
        {
          "internalType": "address",
          "name": "",
          "type": "address"
        }
      ],
      "stateMutability": "view",
      "type": "function"
    },
    {
      "inputs": [],
      "name": "decimals",
      "outputs": [
        {
          "internalType": "uint8",
          "name": "",
          "type": "uint8"
        }
      ],
      "stateMutability": "view",
      "type": "function"
    },
    {
      "inputs": [
        {
          "internalType": "address",
          "name": "spender",
          "type": "address"
        },
        {
          "internalType": "uint256",
          "name": "subtractedValue",
          "type": "uint256"
        }
      ],
      "name": "decreaseAllowance",
      "outputs": [
        {
          "internalType": "bool",
          "name": "",
          "type": "bool"
        }
      ],
      "stateMutability": "nonpayable",
      "type": "function"
    },
    {
      "inputs": [
        {
          "internalType": "uint256",
          "name": "amount",
          "type": "uint256"
        }
      ],
      "name": "deposit",
      "outputs": [],
      "stateMutability": "nonpayable",
      "type": "function"
    },
    {
      "inputs": [],
      "name": "depositETH",
      "outputs": [],
      "stateMutability": "payable",
      "type": "function"
    },
    {
      "inputs": [
        {
          "internalType": "uint256",
          "name": "amount",
          "type": "uint256"
        },
        {
          "internalType": "address",
          "name": "creditor",
          "type": "address"
        }
      ],
      "name": "depositFor",
      "outputs": [],
      "stateMutability": "nonpayable",
      "type": "function"
    },
    {
      "inputs": [
        {
          "internalType": "address",
          "name": "",
          "type": "address"
        }
      ],
      "name": "depositReceipts",
      "outputs": [
        {
          "internalType": "uint16",
          "name": "round",
          "type": "uint16"
        },
        {
          "internalType": "uint104",
          "name": "amount",
          "type": "uint104"
        },
        {
          "internalType": "uint128",
          "name": "unredeemedShares",
          "type": "uint128"
        }
      ],
      "stateMutability": "view",
      "type": "function"
    },
    {
      "inputs": [],
      "name": "feeRecipient",
      "outputs": [
        {
          "internalType": "address",
          "name": "",
          "type": "address"
        }
      ],
      "stateMutability": "view",
      "type": "function"
    },
    {
      "inputs": [
        {
          "internalType": "address",
          "name": "spender",
          "type": "address"
        },
        {
          "internalType": "uint256",
          "name": "addedValue",
          "type": "uint256"
        }
      ],
      "name": "increaseAllowance",
      "outputs": [
        {
          "internalType": "bool",
          "name": "",
          "type": "bool"
        }
      ],
      "stateMutability": "nonpayable",
      "type": "function"
    },
    {
      "inputs": [
        {
          "internalType": "uint256",
          "name": "numRounds",
          "type": "uint256"
        }
      ],
      "name": "initRounds",
      "outputs": [],
      "stateMutability": "nonpayable",
      "type": "function"
    },
    {
      "inputs": [
        {
          "internalType": "uint256",
          "name": "numShares",
          "type": "uint256"
        }
      ],
      "name": "initiateWithdraw",
      "outputs": [],
      "stateMutability": "nonpayable",
      "type": "function"
    },
    {
      "inputs": [],
      "name": "keeper",
      "outputs": [
        {
          "internalType": "address",
          "name": "",
          "type": "address"
        }
      ],
      "stateMutability": "view",
      "type": "function"
    },
    {
      "inputs": [],
      "name": "managementFee",
      "outputs": [
        {
          "internalType": "uint256",
          "name": "",
          "type": "uint256"
        }
      ],
      "stateMutability": "view",
      "type": "function"
    },
    {
      "inputs": [],
      "name": "maxRedeem",
      "outputs": [],
      "stateMutability": "nonpayable",
      "type": "function"
    },
    {
      "inputs": [],
      "name": "name",
      "outputs": [
        {
          "internalType": "string",
          "name": "",
          "type": "string"
        }
      ],
      "stateMutability": "view",
      "type": "function"
    },
    {
      "inputs": [],
      "name": "nextOption",
      "outputs": [
        {
          "internalType": "address",
          "name": "",
          "type": "address"
        }
      ],
      "stateMutability": "view",
      "type": "function"
    },
    {
      "inputs": [],
      "name": "nextOptionReadyAt",
      "outputs": [
        {
          "internalType": "uint256",
          "name": "",
          "type": "uint256"
        }
      ],
      "stateMutability": "view",
      "type": "function"
    },
    {
      "inputs": [],
      "name": "optionState",
      "outputs": [
        {
          "internalType": "address",
          "name": "nextOption",
          "type": "address"
        },
        {
          "internalType": "address",
          "name": "currentOption",
          "type": "address"
        },
        {
          "internalType": "uint32",
          "name": "nextOptionReadyAt",
          "type": "uint32"
        }
      ],
      "stateMutability": "view",
      "type": "function"
    },
    {
      "inputs": [],
      "name": "owner",
      "outputs": [
        {
          "internalType": "address",
          "name": "",
          "type": "address"
        }
      ],
      "stateMutability": "view",
      "type": "function"
    },
    {
      "inputs": [],
      "name": "performanceFee",
      "outputs": [
        {
          "internalType": "uint256",
          "name": "",
          "type": "uint256"
        }
      ],
      "stateMutability": "view",
      "type": "function"
    },
    {
      "inputs": [],
      "name": "pricePerShare",
      "outputs": [
        {
          "internalType": "uint256",
          "name": "",
          "type": "uint256"
        }
      ],
      "stateMutability": "view",
      "type": "function"
    },
    {
      "inputs": [
        {
          "internalType": "uint256",
          "name": "numShares",
          "type": "uint256"
        }
      ],
      "name": "redeem",
      "outputs": [],
      "stateMutability": "nonpayable",
      "type": "function"
    },
    {
      "inputs": [],
      "name": "renounceOwnership",
      "outputs": [],
      "stateMutability": "nonpayable",
      "type": "function"
    },
    {
      "inputs": [
        {
          "internalType": "uint256",
          "name": "",
          "type": "uint256"
        }
      ],
      "name": "roundPricePerShare",
      "outputs": [
        {
          "internalType": "uint256",
          "name": "",
          "type": "uint256"
        }
      ],
      "stateMutability": "view",
      "type": "function"
    },
    {
      "inputs": [
        {
          "internalType": "uint256",
          "name": "newCap",
          "type": "uint256"
        }
      ],
      "name": "setCap",
      "outputs": [],
      "stateMutability": "nonpayable",
      "type": "function"
    },
    {
      "inputs": [
        {
          "internalType": "address",
          "name": "newFeeRecipient",
          "type": "address"
        }
      ],
      "name": "setFeeRecipient",
      "outputs": [],
      "stateMutability": "nonpayable",
      "type": "function"
    },
    {
      "inputs": [
        {
          "internalType": "uint256",
          "name": "newManagementFee",
          "type": "uint256"
        }
      ],
      "name": "setManagementFee",
      "outputs": [],
      "stateMutability": "nonpayable",
      "type": "function"
    },
    {
      "inputs": [
        {
          "internalType": "address",
          "name": "newKeeper",
          "type": "address"
        }
      ],
      "name": "setNewKeeper",
      "outputs": [],
      "stateMutability": "nonpayable",
      "type": "function"
    },
    {
      "inputs": [
        {
          "internalType": "uint256",
          "name": "newPerformanceFee",
          "type": "uint256"
        }
      ],
      "name": "setPerformanceFee",
      "outputs": [],
      "stateMutability": "nonpayable",
      "type": "function"
    },
    {
      "inputs": [
        {
          "internalType": "address",
          "name": "account",
          "type": "address"
        }
      ],
      "name": "shareBalances",
      "outputs": [
        {
          "internalType": "uint256",
          "name": "heldByAccount",
          "type": "uint256"
        },
        {
          "internalType": "uint256",
          "name": "heldByVault",
          "type": "uint256"
        }
      ],
      "stateMutability": "view",
      "type": "function"
    },
    {
      "inputs": [
        {
          "internalType": "address",
          "name": "account",
          "type": "address"
        }
      ],
      "name": "shares",
      "outputs": [
        {
          "internalType": "uint256",
          "name": "",
          "type": "uint256"
        }
      ],
      "stateMutability": "view",
      "type": "function"
    },
    {
      "inputs": [],
      "name": "symbol",
      "outputs": [
        {
          "internalType": "string",
          "name": "",
          "type": "string"
        }
      ],
      "stateMutability": "view",
      "type": "function"
    },
    {
      "inputs": [],
      "name": "totalBalance",
      "outputs": [
        {
          "internalType": "uint256",
          "name": "",
          "type": "uint256"
        }
      ],
      "stateMutability": "view",
      "type": "function"
    },
    {
      "inputs": [],
      "name": "totalPending",
      "outputs": [
        {
          "internalType": "uint256",
          "name": "",
          "type": "uint256"
        }
      ],
      "stateMutability": "view",
      "type": "function"
    },
    {
      "inputs": [],
      "name": "totalSupply",
      "outputs": [
        {
          "internalType": "uint256",
          "name": "",
          "type": "uint256"
        }
      ],
      "stateMutability": "view",
      "type": "function"
    },
    {
      "inputs": [
        {
          "internalType": "address",
          "name": "recipient",
          "type": "address"
        },
        {
          "internalType": "uint256",
          "name": "amount",
          "type": "uint256"
        }
      ],
      "name": "transfer",
      "outputs": [
        {
          "internalType": "bool",
          "name": "",
          "type": "bool"
        }
      ],
      "stateMutability": "nonpayable",
      "type": "function"
    },
    {
      "inputs": [
        {
          "internalType": "address",
          "name": "sender",
          "type": "address"
        },
        {
          "internalType": "address",
          "name": "recipient",
          "type": "address"
        },
        {
          "internalType": "uint256",
          "name": "amount",
          "type": "uint256"
        }
      ],
      "name": "transferFrom",
      "outputs": [
        {
          "internalType": "bool",
          "name": "",
          "type": "bool"
        }
      ],
      "stateMutability": "nonpayable",
      "type": "function"
    },
    {
      "inputs": [
        {
          "internalType": "address",
          "name": "newOwner",
          "type": "address"
        }
      ],
      "name": "transferOwnership",
      "outputs": [],
      "stateMutability": "nonpayable",
      "type": "function"
    },
    {
      "inputs": [],
      "name": "vaultParams",
      "outputs": [
        {
          "internalType": "bool",
          "name": "isPut",
          "type": "bool"
        },
        {
          "internalType": "uint8",
          "name": "decimals",
          "type": "uint8"
        },
        {
          "internalType": "address",
          "name": "asset",
          "type": "address"
        },
        {
          "internalType": "address",
          "name": "underlying",
          "type": "address"
        },
        {
          "internalType": "uint56",
          "name": "minimumSupply",
          "type": "uint56"
        },
        {
          "internalType": "uint104",
          "name": "cap",
          "type": "uint104"
        }
      ],
      "stateMutability": "view",
      "type": "function"
    },
    {
      "inputs": [],
      "name": "vaultState",
      "outputs": [
        {
          "internalType": "uint16",
          "name": "round",
          "type": "uint16"
        },
        {
          "internalType": "uint104",
          "name": "lockedAmount",
          "type": "uint104"
        },
        {
          "internalType": "uint104",
          "name": "lastLockedAmount",
          "type": "uint104"
        },
        {
          "internalType": "uint128",
          "name": "totalPending",
          "type": "uint128"
        },
        {
          "internalType": "uint128",
          "name": "queuedWithdrawShares",
          "type": "uint128"
        }
      ],
      "stateMutability": "view",
      "type": "function"
    },
    {
      "inputs": [
        {
          "internalType": "address",
          "name": "",
          "type": "address"
        }
      ],
      "name": "withdrawals",
      "outputs": [
        {
          "internalType": "uint16",
          "name": "round",
          "type": "uint16"
        },
        {
          "internalType": "uint128",
          "name": "shares",
          "type": "uint128"
        }
      ],
      "stateMutability": "view",
      "type": "function"
    }
  ],
  "bytecode": "0x6101206040523480156200001257600080fd5b50604051620033bb380380620033bb8339810160408190526200003591620001fb565b6001600160a01b0385166200007a5760405162461bcd60e51b8152602060048201526006602482015265042beeecae8d60d31b60448201526064015b60405180910390fd5b6001600160a01b038416620000bb5760405162461bcd60e51b8152602060048201526006602482015265215f7573646360d01b604482015260640162000071565b6001600160a01b038116620001135760405162461bcd60e51b815260206004820152601360248201527f215f676e6f7369734561737941756374696f6e00000000000000000000000000604482015260640162000071565b6001600160a01b0383166200015f5760405162461bcd60e51b815260206004820152601160248201527010afb3b0b6b6b0a1b7b73a3937b63632b960791b604482015260640162000071565b6001600160a01b038216620001a65760405162461bcd60e51b815260206004820152600c60248201526b0857db585c99da5b941bdbdb60a21b604482015260640162000071565b6001600160601b0319606095861b811660805293851b841660a05291841b831660c052831b821660e05290911b16610100526200026a565b80516001600160a01b0381168114620001f657600080fd5b919050565b600080600080600060a0868803121562000213578081fd5b6200021e86620001de565b94506200022e60208701620001de565b93506200023e60408701620001de565b92506200024e60608701620001de565b91506200025e60808701620001de565b90509295509295909350565b60805160601c60a05160601c60c05160601c60e05160601c6101005160601c6130e1620002da600039600061069b015260006105cd015260006103c601526000610816015260008181610a9501528181611914015281816119c0015281816128ef015261292c01526130e16000f3fe6080604052600436106103355760003560e01c80638b10cc7c116101ab578063ad5c4648116100f7578063dd62ed3e11610095578063f6326fb31161006f578063f6326fb314610be9578063f656ba5114610bf1578063f756fa2114610c26578063fe56e23214610c3b57600080fd5b8063dd62ed3e14610b63578063e74b981b14610ba9578063f2fde38b14610bc957600080fd5b8063b6b55f25116100d1578063b6b55f2514610ae3578063ce7c2ac214610b03578063d164cc1514610b23578063db006a7514610b4357600080fd5b8063ad5c464814610a83578063ad7a672f14610ab7578063b4d1d79514610acc57600080fd5b8063a083ff1711610164578063a457c2d71161013e578063a457c2d714610a0d578063a6f7f5d614610a2d578063a9059cbb14610a43578063aced166114610a6357600080fd5b8063a083ff171461096a578063a285c9e8146109cd578063a2db9d83146109ef57600080fd5b80638b10cc7c146108385780638da5cb5b1461085657806395d89b411461087457806399530b06146108895780639be43daa1461089e5780639fcc2d75146108be57600080fd5b806347786d371161028557806370a08231116102235780637e108d52116101fd5780637e108d52146107a157806387153eb1146107c157806387788782146107ee57806389a302711461080457600080fd5b806370a08231146106f2578063715018a6146107285780637a9262a21461073d57600080fd5b806369b411701161025f57806369b41170146106735780636c10f66c146106895780636f31ab34146106bd57806370897b23146106d257600080fd5b806347786d371461059b578063650cce8a146105bb5780636719b2ee146105ef57600080fd5b8063313ce567116102f257806339509351116102cc578063395093511461051d5780633f23bb731461053d5780633f90916a1461055d578063469048401461057b57600080fd5b8063313ce567146104b3578063355274ea146104dd57806336efd16f146104fb57600080fd5b806306fdde031461033a578063095ea7b31461036557806318160ddd146103955780631a92f6c2146103b457806323b872dd146104005780632728f33314610420575b600080fd5b34801561034657600080fd5b5061034f610c5b565b60405161035c9190612e1b565b60405180910390f35b34801561037157600080fd5b50610385610380366004612d64565b610ced565b604051901515815260200161035c565b3480156103a157600080fd5b506099545b60405190815260200161035c565b3480156103c057600080fd5b506103e87f000000000000000000000000000000000000000000000000000000000000000081565b6040516001600160a01b03909116815260200161035c565b34801561040c57600080fd5b5061038561041b366004612d29565b610d04565b34801561042c57600080fd5b5060cf5460d05461046e9161ffff8116916001600160681b03620100008304811692600160781b900416906001600160801b0380821691600160801b90041685565b6040805161ffff90961686526001600160681b03948516602087015293909216928401929092526001600160801b03918216606084015216608082015260a00161035c565b3480156104bf57600080fd5b5060cc54610100900460ff1660405160ff909116815260200161035c565b3480156104e957600080fd5b5060ce546001600160681b03166103a6565b34801561050757600080fd5b5061051b610516366004612ddd565b610db5565b005b34801561052957600080fd5b50610385610538366004612d64565b610e57565b34801561054957600080fd5b506103a6610558366004612cdd565b610e93565b34801561056957600080fd5b5060d0546001600160801b03166103a6565b34801561058757600080fd5b5060d3546103e8906001600160a01b031681565b3480156105a757600080fd5b5061051b6105b6366004612dad565b610ee6565b3480156105c757600080fd5b506103e87f000000000000000000000000000000000000000000000000000000000000000081565b3480156105fb57600080fd5b5061064261060a366004612cdd565b60c96020526000908152604090205461ffff8116906201000081046001600160681b031690600160781b90046001600160801b031683565b6040805161ffff90941684526001600160681b0390921660208401526001600160801b03169082015260600161035c565b34801561067f57600080fd5b506103a6610e1081565b34801561069557600080fd5b506103e87f000000000000000000000000000000000000000000000000000000000000000081565b3480156106c957600080fd5b5061051b610f7b565b3480156106de57600080fd5b5061051b6106ed366004612dad565b610fb8565b3480156106fe57600080fd5b506103a661070d366004612cdd565b6001600160a01b031660009081526097602052604090205490565b34801561073457600080fd5b5061051b61107f565b34801561074957600080fd5b5061077f610758366004612cdd565b60cb6020526000908152604090205461ffff8116906201000090046001600160801b031682565b6040805161ffff90931683526001600160801b0390911660208301520161035c565b3480156107ad57600080fd5b5061051b6107bc366004612dad565b6110b5565b3480156107cd57600080fd5b506103a66107dc366004612dad565b60ca6020526000908152604090205481565b3480156107fa57600080fd5b506103a660d55481565b34801561081057600080fd5b506103e87f000000000000000000000000000000000000000000000000000000000000000081565b34801561084457600080fd5b5060d2546001600160a01b03166103e8565b34801561086257600080fd5b506065546001600160a01b03166103e8565b34801561088057600080fd5b5061034f6112f0565b34801561089557600080fd5b506103a66112ff565b3480156108aa57600080fd5b5061051b6108b9366004612dad565b611339565b3480156108ca57600080fd5b5060cc5460cd5460ce5461091a9260ff808216936101008304909116926001600160a01b036201000090930483169282169166ffffffffffffff600160a01b90910416906001600160681b031686565b60408051961515875260ff90951660208701526001600160a01b03938416948601949094529116606084015266ffffffffffffff1660808301526001600160681b031660a082015260c00161035c565b34801561097657600080fd5b5060d15460d2546109a1916001600160a01b039081169190811690600160a01b900463ffffffff1683565b604080516001600160a01b03948516815293909216602084015263ffffffff169082015260600161035c565b3480156109d957600080fd5b5060d254600160a01b900463ffffffff166103a6565b3480156109fb57600080fd5b5060d1546001600160a01b03166103e8565b348015610a1957600080fd5b50610385610a28366004612d64565b61146d565b348015610a3957600080fd5b506103a660d65481565b348015610a4f57600080fd5b50610385610a5e366004612d64565b611506565b348015610a6f57600080fd5b5060d4546103e8906001600160a01b031681565b348015610a8f57600080fd5b506103e87f000000000000000000000000000000000000000000000000000000000000000081565b348015610ac357600080fd5b506103a6611513565b348015610ad857600080fd5b506103a662093a8081565b348015610aef57600080fd5b5061051b610afe366004612dad565b6115b2565b348015610b0f57600080fd5b506103a6610b1e366004612cdd565b611640565b348015610b2f57600080fd5b5061051b610b3e366004612cdd565b61165d565b348015610b4f57600080fd5b5061051b610b5e366004612dad565b6116ec565b348015610b6f57600080fd5b506103a6610b7e366004612cf7565b6001600160a01b03918216600090815260986020908152604080832093909416825291909152205490565b348015610bb557600080fd5b5061051b610bc4366004612cdd565b611759565b348015610bd557600080fd5b5061051b610be4366004612cdd565b61184c565b61051b6118e7565b348015610bfd57600080fd5b50610c11610c0c366004612cdd565b611a38565b6040805192835260208301919091520161035c565b348015610c3257600080fd5b5061051b611b1b565b348015610c4757600080fd5b5061051b610c56366004612dad565b611d0a565b6060609a8054610c6a9061303f565b80601f0160208091040260200160405190810160405280929190818152602001828054610c969061303f565b8015610ce35780601f10610cb857610100808354040283529160200191610ce3565b820191906000526020600020905b815481529060010190602001808311610cc657829003601f168201915b5050505050905090565b6000610cfa338484611daa565b5060015b92915050565b6000610d11848484611ecf565b6001600160a01b038416600090815260986020908152604080832033845290915290205482811015610d9b5760405162461bcd60e51b815260206004820152602860248201527f45524332303a207472616e7366657220616d6f756e74206578636565647320616044820152676c6c6f77616e636560c01b60648201526084015b60405180910390fd5b610da88533858403611daa565b60019150505b9392505050565b60026001541415610dd85760405162461bcd60e51b8152600401610d9290612e83565b600260015581610e145760405162461bcd60e51b815260206004820152600760248201526608585b5bdd5b9d60ca1b6044820152606401610d92565b6001600160a01b038116610e2757600080fd5b610e31828261209f565b60cc54610e4f906201000090046001600160a01b031633308561233a565b505060018055565b3360008181526098602090815260408083206001600160a01b03871684529091528120549091610cfa918590610e8e908690612eba565b611daa565b60cc5460009060ff6101009091041681610ec9610eaf60995490565b610eb7611513565b60d0546001600160801b0316856123a5565b9050610ede610ed785611640565b82846123e5565b949350505050565b6065546001600160a01b03163314610f105760405162461bcd60e51b8152600401610d9290612e4e565b60008111610f4a5760405162461bcd60e51b81526020600482015260076024820152660216e65774361760cc1b6044820152606401610d92565b610f5381612447565b60ce80546cffffffffffffffffffffffffff19166001600160681b0392909216919091179055565b60026001541415610f9e5760405162461bcd60e51b8152600401610d9290612e83565b6002600181905550610fb260006001612491565b60018055565b6065546001600160a01b03163314610fe25760405162461bcd60e51b8152600401610d9290612e4e565b610ff0620f42406064612fdd565b811061103e5760405162461bcd60e51b815260206004820152601760248201527f496e76616c696420706572666f726d616e6365206665650000000000000000006044820152606401610d92565b60d55460408051918252602082018390527f24867dfb6fcb9970a07be21024956524abe7a1837faa903ff0e99aaa40cf893e910160405180910390a160d555565b6065546001600160a01b031633146110a95760405162461bcd60e51b8152600401610d9290612e4e565b6110b36000612668565b565b600260015414156110d85760405162461bcd60e51b8152600401610d9290612e83565b6002600155806111175760405162461bcd60e51b815260206004820152600a602482015269216e756d53686172657360b01b6044820152606401610d92565b33600090815260c960205260409020546201000090046001600160681b0316151580611161575033600090815260c96020526040902054600160781b90046001600160801b031615155b156111725761117260006001612491565b60cf5433600081815260cb60209081526040918290208054835187815261ffff96871693810184905292959194911685149290917f0c53c82ad07e2d592d88ece3b066777dd60f1118e2a081b380efc4358f0d9e2a910160405180910390a281546201000090046001600160801b0316600082156111fb576111f482876126ba565b905061125e565b811561123d5760405162461bcd60e51b81526020600482015260116024820152704578697374696e6720776974686472617760781b6044820152606401610d92565b5033600090815260cb60205260409020805461ffff191661ffff8616179055845b611267816126c6565b33600090815260cb6020526040812080546001600160801b03808516620100000262010000600160901b03199092169190911790915560d0546112b391600160801b90910416886126ba565b90506112be816126c6565b60d080546001600160801b03808416600160801b0291161790556112e3333089611ecf565b5050600180555050505050565b6060609b8054610c6a9061303f565b600061133461130d60995490565b611315611513565b60d05460cc546001600160801b0390911690610100900460ff166123a5565b905090565b6002600154141561135c5760405162461bcd60e51b8152600401610d9290612e83565b60026001558061139b5760405162461bcd60e51b815260206004820152600a602482015269216e756d526f756e647360b01b6044820152606401610d92565b60cf5461ffff1660005b828110156114645760006113b98284612eba565b9050828110156113f65760405162461bcd60e51b81526020600482015260086024820152674f766572666c6f7760c01b6044820152606401610d92565b600081815260ca6020526040902054156114405760405162461bcd60e51b815260206004820152600b60248201526a125b9a5d1a585b1a5e995960aa1b6044820152606401610d92565b600090815260ca60205260409020600190558061145c8161307a565b9150506113a5565b50506001805550565b3360009081526098602090815260408083206001600160a01b0386168452909152812054828110156114ef5760405162461bcd60e51b815260206004820152602560248201527f45524332303a2064656372656173656420616c6c6f77616e63652062656c6f77604482015264207a65726f60d81b6064820152608401610d92565b6114fc3385858403611daa565b5060019392505050565b6000610cfa338484611ecf565b60cc546040516370a0823160e01b815230600482015260009161133491620100009091046001600160a01b0316906370a082319060240160206040518083038186803b15801561156257600080fd5b505afa158015611576573d6000803e3d6000fd5b505050506040513d601f19601f8201168201806040525081019061159a9190612dc5565b60cf546201000090046001600160681b0316906126ba565b600260015414156115d55760405162461bcd60e51b8152600401610d9290612e83565b6002600155806116115760405162461bcd60e51b815260206004820152600760248201526608585b5bdd5b9d60ca1b6044820152606401610d92565b61161b813361209f565b60cc54611639906201000090046001600160a01b031633308461233a565b5060018055565b600080600061164e84611a38565b9092509050610ede82826126ba565b6065546001600160a01b031633146116875760405162461bcd60e51b8152600401610d9290612e4e565b6001600160a01b0381166116ca5760405162461bcd60e51b815260206004820152600a60248201526910b732bba5b2b2b832b960b11b6044820152606401610d92565b60d480546001600160a01b0319166001600160a01b0392909216919091179055565b6002600154141561170f5760405162461bcd60e51b8152600401610d9290612e83565b60026001558061174e5760405162461bcd60e51b815260206004820152600a602482015269216e756d53686172657360b01b6044820152606401610d92565b611639816000612491565b6065546001600160a01b031633146117835760405162461bcd60e51b8152600401610d9290612e4e565b6001600160a01b0381166117cc5760405162461bcd60e51b815260206004820152601060248201526f085b995dd19959549958da5c1a595b9d60821b6044820152606401610d92565b60d3546001600160a01b038281169116141561182a5760405162461bcd60e51b815260206004820152601860248201527f4d757374206265206e657720666565526563697069656e7400000000000000006044820152606401610d92565b60d380546001600160a01b0319166001600160a01b0392909216919091179055565b6065546001600160a01b031633146118765760405162461bcd60e51b8152600401610d9290612e4e565b6001600160a01b0381166118db5760405162461bcd60e51b815260206004820152602660248201527f4f776e61626c653a206e6577206f776e657220697320746865207a65726f206160448201526564647265737360d01b6064820152608401610d92565b6118e481612668565b50565b6002600154141561190a5760405162461bcd60e51b8152600401610d9290612e83565b600260015560cc547f00000000000000000000000000000000000000000000000000000000000000006001600160a01b0390811662010000909204161461197b5760405162461bcd60e51b8152602060048201526005602482015264042ae8aa8960db1b6044820152606401610d92565b600034116119b45760405162461bcd60e51b81526020600482015260066024820152652176616c756560d01b6044820152606401610d92565b6119be343361209f565b7f00000000000000000000000000000000000000000000000000000000000000006001600160a01b031663d0e30db0346040518263ffffffff1660e01b81526004016000604051808303818588803b158015611a1957600080fd5b505af1158015611a2d573d6000803e3d6000fd5b505060018055505050565b6001600160a01b038116600090815260c9602090815260408083208151606081018352905461ffff81168083526201000082046001600160681b031694830194909452600160781b90046001600160801b031691810191909152829160011115611aba575050506001600160a01b031660009081526097602052604081205491565b60cf54815161ffff908116600090815260ca602052604081205460cc549193611af093869391169190610100900460ff16612710565b9050611b11856001600160a01b031660009081526097602052604090205490565b9590945092505050565b60026001541415611b3e5760405162461bcd60e51b8152600401610d9290612e83565b600260015533600090815260cb6020526040902080546001600160801b03620100008204169061ffff1681611ba55760405162461bcd60e51b815260206004820152600d60248201526c139bdd081a5b9a5d1a585d1959609a1b6044820152606401610d92565b60cf5461ffff168110611bed5760405162461bcd60e51b815260206004820152601060248201526f149bdd5b99081b9bdd0818db1bdcd95960821b6044820152606401610d92565b33600090815260cb60205260409020805462010000600160901b031916905560d054611c2990600160801b90046001600160801b031683612781565b60d080546001600160801b03928316600160801b029216919091179055600081815260ca602052604081205460cc54611c6c91859160ff610100909104166123e5565b604080518281526020810186905291925033917ff279e6a1f5e320cca91135676d9cb6e44ca8a08c0b88342bcdb1144f6511b568910160405180910390a2611cb4308461278d565b60008111611cf65760405162461bcd60e51b815260206004820152600f60248201526e085dda5d1a191c985dd05b5bdd5b9d608a1b6044820152606401610d92565b611d0033826128d8565b5050600180555050565b6065546001600160a01b03163314611d345760405162461bcd60e51b8152600401610d9290612e4e565b611d42620f42406064612fdd565b8110611d895760405162461bcd60e51b8152602060048201526016602482015275496e76616c6964206d616e6167656d656e742066656560501b6044820152606401610d92565b611da463031ba309611d9e83620f4240612a39565b90612a45565b60d65550565b6001600160a01b038316611e0c5760405162461bcd60e51b8152602060048201526024808201527f45524332303a20617070726f76652066726f6d20746865207a65726f206164646044820152637265737360e01b6064820152608401610d92565b6001600160a01b038216611e6d5760405162461bcd60e51b815260206004820152602260248201527f45524332303a20617070726f766520746f20746865207a65726f206164647265604482015261737360f01b6064820152608401610d92565b6001600160a01b0383811660008181526098602090815260408083209487168084529482529182902085905590518481527f8c5be1e5ebec7d5bd14f71427d1e84f3dd0314c0f7b2291e5b200ac8c7c3b92591015b60405180910390a3505050565b6001600160a01b038316611f335760405162461bcd60e51b815260206004820152602560248201527f45524332303a207472616e736665722066726f6d20746865207a65726f206164604482015264647265737360d81b6064820152608401610d92565b6001600160a01b038216611f955760405162461bcd60e51b815260206004820152602360248201527f45524332303a207472616e7366657220746f20746865207a65726f206164647260448201526265737360e81b6064820152608401610d92565b6001600160a01b0383166000908152609760205260409020548181101561200d5760405162461bcd60e51b815260206004820152602660248201527f45524332303a207472616e7366657220616d6f756e7420657863656564732062604482015265616c616e636560d01b6064820152608401610d92565b6001600160a01b03808516600090815260976020526040808220858503905591851681529081208054849290612044908490612eba565b92505081905550826001600160a01b0316846001600160a01b03167fddf252ad1be2c89b69c2b068fc378daa952ba7f163c4a11628f55a4df523b3ef8460405161209091815260200190565b60405180910390a35b50505050565b60cf5461ffff1660006120ba846120b4611513565b906126ba565b60ce549091506001600160681b03168111156121055760405162461bcd60e51b815260206004820152600a6024820152690457863656564206361760b41b6044820152606401610d92565b60cd54600160a01b900466ffffffffffffff1681101561215e5760405162461bcd60e51b8152602060048201526014602482015273496e73756666696369656e742062616c616e636560601b6044820152606401610d92565b60408051858152602081018490526001600160a01b038516917f90890809c654f11d6e72a28fa60149770a0d11ec6c92319d6ceb2bb0a4ea1a15910160405180910390a26001600160a01b038316600090815260c9602090815260408083208151606081018352905461ffff81168083526201000082046001600160681b031683860152600160781b9091046001600160801b031682840152845260ca90925282205460cc5491929161221d918491879190610100900460ff16612710565b8251909150869061ffff1685141561224e57602083015160009061224a906001600160681b0316896126ba565b9150505b61225781612447565b6040805160608101825261ffff80881682526001600160681b0380851660208085019182526001600160801b038089168688019081526001600160a01b038e16600090815260c990935296822095518654935197518216600160781b02600160781b600160f81b03199890951662010000026effffffffffffffffffffffffffffff1990941695169490941791909117949094161790915560d0546122fd9116896126ba565b9050612308816126c6565b60d080546fffffffffffffffffffffffffffffffff19166001600160801b039290921691909117905550505050505050565b6040516001600160a01b03808516602483015283166044820152606481018290526120999085906323b872dd60e01b906084015b60408051601f198184030181529190526020810180516001600160e01b03166001600160e01b031990931692909217909152612a51565b6000806123b383600a612f35565b9050600086116123c357806123db565b6123db86611d9e6123d48888612781565b8490612a39565b9695505050505050565b60006001831161242f5760405162461bcd60e51b8152602060048201526015602482015274496e76616c6964206173736574506572536861726560581b6044820152606401610d92565b610ede61243d83600a612f35565b611d9e8686612a39565b6001600160681b038111156118e45760405162461bcd60e51b815260206004820152601060248201526f13dd995c999b1bddc81d5a5b9d0c4c0d60821b6044820152606401610d92565b33600090815260c9602090815260408083208151606081018352905461ffff8082168084526201000083046001600160681b031684870152600160781b9092046001600160801b03168385015260cf5491865260ca9094529184205460cc549194929093169261250c9185918591610100900460ff16612710565b905083612519578461251b565b805b945084612529575050505050565b8085111561256d5760405162461bcd60e51b81526020600482015260116024820152704578636565647320617661696c61626c6560781b6044820152606401610d92565b825161ffff168211612583578260200151612586565b60005b33600090815260c96020526040902080546001600160681b039290921662010000026effffffffffffffffffffffffff0000199092169190911790556125cb856126c6565b6125d58186612781565b33600081815260c960205260409081902080546001600160801b0394909416600160781b02600160781b600160f81b0319909416939093179092558451915190917fe5b754fb1abb7f01b499791d0b820ae3b6af3424ac1c59768edb53f4ec31a9299161264e9189825261ffff16602082015260400190565b60405180910390a2612661303387611ecf565b5050505050565b606580546001600160a01b038381166001600160a01b0319831681179093556040519116919082907f8be0079c531659141344cd1fd0a4f28419497f9722a3daafe3b4186f6b6457e090600090a35050565b6000610dae8284612eba565b6001600160801b038111156118e45760405162461bcd60e51b815260206004820152601060248201526f09eeccae4ccd8deee40ead2dce86264760831b6044820152606401610d92565b835160009061ffff161580159061272b5750845161ffff1684115b1561276d57600061274a86602001516001600160681b03168585612b23565b6040870151909150612765906001600160801b0316826126ba565b915050610ede565b50505050604001516001600160801b031690565b6000610dae8284612ffc565b6001600160a01b0382166127ed5760405162461bcd60e51b815260206004820152602160248201527f45524332303a206275726e2066726f6d20746865207a65726f206164647265736044820152607360f81b6064820152608401610d92565b6001600160a01b038216600090815260976020526040902054818110156128615760405162461bcd60e51b815260206004820152602260248201527f45524332303a206275726e20616d6f756e7420657863656564732062616c616e604482015261636560f01b6064820152608401610d92565b6001600160a01b0383166000908152609760205260408120838303905560998054849290612890908490612ffc565b90915550506040518281526000906001600160a01b038516907fddf252ad1be2c89b69c2b068fc378daa952ba7f163c4a11628f55a4df523b3ef90602001611ec2565b505050565b60cc546001600160a01b03620100009091048116907f000000000000000000000000000000000000000000000000000000000000000016811415612a2557604051632e1a7d4d60e01b8152600481018390527f00000000000000000000000000000000000000000000000000000000000000006001600160a01b031690632e1a7d4d90602401600060405180830381600087803b15801561297857600080fd5b505af115801561298c573d6000803e3d6000fd5b505050506000836001600160a01b03168360405160006040518083038185875af1925050503d80600081146129dd576040519150601f19603f3d011682016040523d82523d6000602084013e6129e2565b606091505b50509050806120995760405162461bcd60e51b815260206004820152600f60248201526e151c985b9cd9995c8819985a5b1959608a1b6044820152606401610d92565b6128d36001600160a01b0382168484612b86565b6000610dae8284612fdd565b6000610dae8284612ed2565b6000612aa6826040518060400160405280602081526020017f5361666545524332303a206c6f772d6c6576656c2063616c6c206661696c6564815250856001600160a01b0316612bb69092919063ffffffff16565b8051909150156128d35780806020019051810190612ac49190612d8d565b6128d35760405162461bcd60e51b815260206004820152602a60248201527f5361666545524332303a204552433230206f7065726174696f6e20646964206e6044820152691bdd081cdd58d8d9595960b21b6064820152608401610d92565b600060018311612b6d5760405162461bcd60e51b8152602060048201526015602482015274496e76616c6964206173736574506572536861726560581b6044820152606401610d92565b610ede83611d9e612b7f85600a612f35565b8790612a39565b6040516001600160a01b0383166024820152604481018290526128d390849063a9059cbb60e01b9060640161236e565b6060610ede848460008585843b612c0f5760405162461bcd60e51b815260206004820152601d60248201527f416464726573733a2063616c6c20746f206e6f6e2d636f6e74726163740000006044820152606401610d92565b600080866001600160a01b03168587604051612c2b9190612dff565b60006040518083038185875af1925050503d8060008114612c68576040519150601f19603f3d011682016040523d82523d6000602084013e612c6d565b606091505b5091509150612c7d828286612c88565b979650505050505050565b60608315612c97575081610dae565b825115612ca75782518084602001fd5b8160405162461bcd60e51b8152600401610d929190612e1b565b80356001600160a01b0381168114612cd857600080fd5b919050565b600060208284031215612cee578081fd5b610dae82612cc1565b60008060408385031215612d09578081fd5b612d1283612cc1565b9150612d2060208401612cc1565b90509250929050565b600080600060608486031215612d3d578081fd5b612d4684612cc1565b9250612d5460208501612cc1565b9150604084013590509250925092565b60008060408385031215612d76578182fd5b612d7f83612cc1565b946020939093013593505050565b600060208284031215612d9e578081fd5b81518015158114610dae578182fd5b600060208284031215612dbe578081fd5b5035919050565b600060208284031215612dd6578081fd5b5051919050565b60008060408385031215612def578182fd5b82359150612d2060208401612cc1565b60008251612e11818460208701613013565b9190910192915050565b6020815260008251806020840152612e3a816040850160208701613013565b601f01601f19169190910160400192915050565b6020808252818101527f4f776e61626c653a2063616c6c6572206973206e6f7420746865206f776e6572604082015260600190565b6020808252601f908201527f5265656e7472616e637947756172643a207265656e7472616e742063616c6c00604082015260600190565b60008219821115612ecd57612ecd613095565b500190565b600082612eed57634e487b7160e01b81526012600452602481fd5b500490565b600181815b80851115612f2d578160001904821115612f1357612f13613095565b80851615612f2057918102915b93841c9390800290612ef7565b509250929050565b6000610dae8383600082612f4b57506001610cfe565b81612f5857506000610cfe565b8160018114612f6e5760028114612f7857612f94565b6001915050610cfe565b60ff841115612f8957612f89613095565b50506001821b610cfe565b5060208310610133831016604e8410600b8410161715612fb7575081810a610cfe565b612fc18383612ef2565b8060001904821115612fd557612fd5613095565b029392505050565b6000816000190483118215151615612ff757612ff7613095565b500290565b60008282101561300e5761300e613095565b500390565b60005b8381101561302e578181015183820152602001613016565b838111156120995750506000910152565b600181811c9082168061305357607f821691505b6020821081141561307457634e487b7160e01b600052602260045260246000fd5b50919050565b600060001982141561308e5761308e613095565b5060010190565b634e487b7160e01b600052601160045260246000fdfea26469706673582212201c697e86373414e3bbb46dd14ae8f58bfa9c637fa4f54e3efc53c5ba89b30eef64736f6c63430008040033",
  "linkReferences": {},
  "deployedLinkReferences": {}
}