{
  "_format": "hh-sol-artifact-1",
  "contractName": "IRibbonOptionsVault",
  "sourceName": "contracts/V2/interfaces/IRibbonOptionsVault.sol",
  "abi": [
    {
      "inputs": [],
      "name": "currentOption",
      "outputs": [
        {
          "internalType": "address",
          "name": "",
          "type": "address"
        }
      ],
      "stateMutability": "view",
      "type": "function"
    },
    {
      "inputs": [],
      "name": "nextOption",
      "outputs": [
        {
          "internalType": "address",
          "name": "",
          "type": "address"
        }
      ],
      "stateMutability": "view",
      "type": "function"
    },
    {
      "inputs": [],
      "name": "nextOptionReadyAt",
      "outputs": [
        {
          "internalType": "uint256",
          "name": "",
          "type": "uint256"
        }
      ],
      "stateMutability": "view",
      "type": "function"
    }
  ],
  "bytecode": "0x6080604052348015600f57600080fd5b5060998061001e6000396000f3fe6080604052348015600f57600080fd5b5060043610603c5760003560e01c80638b10cc7c146041578063a285c9e8146055578063a2db9d83146041575b600080fd5b604051600081526020015b60405180910390f35b60405160008152602001604c56fea2646970667358221220ce135c64dad55d7f2c84072df835e5f216ed4022cac329a7783ba4f13d72b07064736f6c63430008040033",
  "linkReferences": {},
  "deployedLinkReferences": {}
}