{
  "_format": "hh-sol-artifact-1",
  "contractName": "IRibbonVaultBase",
  "sourceName": "contracts/V2/interfaces/IRibbonVaultBase.sol",
  "abi": [
    {
      "inputs": [],
      "name": "rollVault",
      "outputs": [],
      "stateMutability": "nonpayable",
      "type": "function"
    },
    {
      "inputs": [],
      "name": "totalBalance",
      "outputs": [
        {
          "internalType": "uint256",
          "name": "",
          "type": "uint256"
        }
      ],
      "stateMutability": "view",
      "type": "function"
    }
  ],
  "bytecode": "0x6080604052348015600f57600080fd5b5060838061001e6000396000f3fe6080604052348015600f57600080fd5b506004361060325760003560e01c8063864366e2146037578063ad7a672f146039575b600080fd5b005b600060405190815260200160405180910390f3fea264697066735822122032c0e774d748951facb5dd34b33e7f1bbd322cc6b4ecbd19251bf11de378076b64736f6c63430008040033",
  "linkReferences": {},
  "deployedLinkReferences": {}
}